:020000041202E6
:1000000000200020F18E0212718F02126D58002024
:10001000AF5800203B8F02123B8F02123B8F02121F
:100020000000000000000000000000003B8F0212F2
:100030003B8F021200000000915700203DE80312A0
:100040003B8F02123B8F02124D4E03125F4E031282
:10005000714E0312834E0312954E0312A74E0312E4
:10006000B94E0312CB4E03123B8F0212ED8E0212D9
:100070003B8F02123B8F02123B8F02123B8F021208
:100080003B8F02123B8F02123B8F02123B8F0212F8
:10009000315B03123B8F02123B8F02123B8F021225
:1000A0003B8F02123B8F02123B8F02123B8F0212D8
:1000B0003B8F02123B8F02123B8F02123B8F0212C8
:1000C0003B8F02123B8F02123B8F02123B8F0212B8
:1000D0003B8F02123B8F02123B8F02123B8F0212A8
:1000E0003B8F02123B8F02123B8F02123B8F021298
:1000F0003B8F02123B8F02123D6703123B8F0212AD
:100100003B8F021261790312BD4D0312CF4D0312D2
:10011000E14D0312F34D0312054E0312174E031265
:10012000294E03123B4E03123B8F0212156203123B
:100130003B8F02124D73031261DD0312DDA2031225
:100140003B8F02123B8F02123B8F0212C1E7031258
:100150003B8F02123B8F02123B8F02123B8F021227
:10016000256703123B8F02123B8F02123B8F021254
:1001700053730312657B0312597303123B8F0212F0
:100180003B8F02123B8F02123B8F02123B8F0212F7
:10019000BD5C03123B8F02123B8F02123B8F021297
:1001A0003B8F021279DD03123B8F02123B8F02124A
:1001B0003B8F02123B8F02123B8F02123B8F0212C7
:1001C0003B8F02123B8F02123B8F02120000000095
:1001D000000000000000000000000000000000001F
:1001E000000000000000000000000000000000000F
:1001F00000000000000000000000000000000000FF
:0402000000000000FA
:1002040003F0F8BD024A936E60F31D539366704782
:1002140000A00C5038B560B1114C6368DBB2072BF9
:100224001AD06368DBB20F2B16D0082801D010282F
:1002340014D100294FF021040CBF20210121094DC4
:100244008440EB6D814023EA04030B43EB651AB150
:1002540041F2883004F090FB002038BD0120FCE717
:1002640000B0005000A00C5008B5EFF31083012536
:1002740085F31088022004F09DFA284603F0A4FABE
:100284002A4600210820FFF7C5FF4FF4FA5004F076
:1002940095FB002003F012F8044628B904F0FAFA9A
:1002A4002946204603F0E8F845F25002094C0A4B6F
:1002B40063670A4B1A6323685B0706D523680848FB
:1002C40023F00403236004F057FB236843F0040382
:1002D4002360FEE700A00C5015C0500A00B00C507B
:1002E400A0860100044B1A7822B118B1DB780370A0
:1002F400002070470120704711840020044B1A78B5
:1003040022B118B15B7B0370002070470120704755
:100314001184002003280ED8084A52F8203029B14D
:1003240043F0060342F820300020704723F0060310
:1003340043F00403F6E70120704700BF5CB00C50A3
:1003440003289DBF034B53F82000C0F340204FF017
:10035400FF3070475CB00C5003280CD8074B53F89F
:100364002020920707D553F8202061F3000243F8B8
:100374002020002070470120704700BF5CB00C5063
:1003840059B1032809D8064B53F82030002013F044
:10039400020318BF01230B7070470120704700BF90
:1003A4005CB00C50F8B50746002002F087FF00212E
:1003B4000446084603F060F802F0B2FF064602F075
:1003C400B2FF05463846FFF71DFF002004F0D4FABB
:1003D400282004F0D1FA03F009F803F00FF83046AE
:1003E40002F0FCFF284602F0FDFF2146002003F046
:1003F40043F8BDE8F840002004F0BEBA70B590F8A8
:10040400263004460E4673B102F0AAFC0546204687
:1004140001F09CFD3146204601F051FD2846BDE81F
:10042400704002F0A1BC70BD02F04CBB02F04ABBAC
:1004340010B50C4602F046FB20B12146BDE8104041
:10044400FFF7DCBF10BD000008B502F00DFB0A4B3E
:100454001B787BB100280DDB084B03EB401005F043
:1004640073FA38B1BDE8084040F201220449054856
:1004740005F0B2BA08BD00BF80990020E8AF0020A3
:10048400762F00206566002008B502F01BFB18B12A
:10049400BDE8084001F0FEBC08BD0000034B1B781A
:1004A40043FA00F000F00100704700BFE4AF002001
:1004B40010B502F0D9FA0F4B04461B78C3B10028DB
:1004C40016DBC0B2FFF7EAFF90B14FF0FF3005F042
:1004D40097FA0146084800EB441005F079FA38B160
:1004E400BDE810404FF4F7720449054805F074BAAA
:1004F40010BD00BF80990020E8AF0020862F0020A7
:1005040065660020F7B5154D2C781CBB144B6F465F
:100514009A8818689B79ADF804208DF8063000900D
:1005240002F09EFB01220F4B0F4E28701A70E2B2AC
:100534001046FFF7B3FF40B131328DF80520002398
:1005440001223946304605F023FA0134052C06F120
:100554002006ECD1287803B0F0BD00BFE4AF002042
:100564007166002080990020E8AF002008B5FFF7ED
:10057400C9FF002008BD72745F666C6173685F75A3
:100584006E6C6F636B0072745F666C6173685F6C32
:100594006F636B00F0B505460138C0B2FD2808D87A
:1005A40000240B4F57F8040B067826B90134062CA7
:1005B400F8D100200BE0AE4205D14678964202D134
:1005C40086788E4201D00830EEE703B11C70F0BD8E
:1005D4002430002007B50DF10703FFF7DBFF064BBE
:1005E40040B14FF405719DF8072001FB023003B0C0
:1005F4005DF804FB1846FAE73C32002008B50023F6
:10060400FFF7C8FF08B1406808BD4FF40020FBE7BE
:1006140008B50023FFF7BEFF10B1C07800F0010059
:1006240008BD000084310020EC300020B4300020EC
:1006340094300020643000203C300020C225390072
:1006440000000002C225370000008000C22019010A
:1006540000000002257018000000000100000000E6
:100664000000000020411900000000022040190091
:100674000000000220431900000000028520190137
:100684000000000285201A010000000400000000A0
:1006940000000000C8601900000000020B401900AF
:1006A40000000002C8401900000000020000000021
:1006B40000000000EF60190000000002EF70190153
:1006C40000000002E542190000000002EF4019009A
:1006D4000000000268491900000000025E40190091
:1006E4000000000200000000000000008560160108
:1006F400000040008560170100008000856018013B
:1007040000000001856518010000000185631801DF
:1007140000000001852017010000800085201801D9
:10072400000000012570160000004000EF60180072
:1007340000000001EF401800000000010B601800E9
:10074400000000015E50180000000001A1281800FC
:1007540000000001C843180100000001C84018004F
:1007640000000001C840170000008000204017016D
:1007740000008000CD6018000000000100000000AF
:100784000000000085601501000020008560140150
:10079400000010008560130000000800C860140009
:1007A40000001000C860150000002000C86016009A
:1007B40000004000C860170000008000C8601800F6
:1007C400000000010B40170000008000F8421800F0
:1007D400000000015E701700000080005E401800F9
:1007E40000000001EF6016000000400020401801E6
:1007F40000000001204118000000000120501800F2
:1008040000000001EB60130000001000EB60140016
:10081400000010001C401800000000016840170090
:100824000000800068401800000000010B40180020
:1008340000000001000000000000000000856015B9
:10084400000003000000000100100000060000008A
:100854000000000001040000000000000001050089
:10086400010000000000010101010000000000017E
:10087400000000000000000000030001000000026E
:1008840001010B00010800000201013B0002080005
:10089400000201016B0003080000020101BB000219
:1008A400000002020201EB00030400030203019FA3
:1008B4000001000000000001000000000000000032
:1008C4000000000000000000000000000000000024
:1008D4000000000000000000000000000000000014
:1008E400000000000000000000000000000099006B
:1008F400000000000000016600000000000000018C
:10090400350001000000000001500000000000005C
:100914000001020101000000020101320103000094
:1009240000020101000000000000000000000000BF
:10093400000000000000810000000000020101200E
:10094400000000000002010152000000000002014A
:1009540001D8000000000002010160000000000056
:100964000000010000000000000000000000000082
:100974000000000000000000000000000000000073
:100984000000000000000000000000000000000063
:100994000000000000000000000000000000000053
:1009A4000000000000000000000000000000000043
:1009B4000000000000000000000000000000000033
:1009C4000000000000000000000000000000000023
:1009D4000000000000000000000000000000000013
:1009E4000000000000000000000000000000000003
:1009F40000000000000000000000000000000000F3
:100A040000000000004B0001080000020101480042
:100A1400010800000201014201010000000201017D
:100A2400440000000000020101B9000000000000C1
:100A34000001AB0000000000000001ED000707000A
:100A4400070207015A00010800000201010000002A
:100A54000085601600000300000000010010000083
:100A64000600000000000000010400000000000077
:100A74000001050001000000000001010101000067
:100A8400000000010000000000000000000300015D
:100A94000000000201010B00010800000201013BFB
:100AA40000020800000201016B00030800000201BB
:100AB40001BB0002000002020201EB000304000378
:100AC4000203019F0001000000000001000000007B
:100AD4000000000000000000000000000000000012
:100AE4000000000000000000000000000000000002
:100AF40000000000000000000000000000000000F2
:100B040000009900000000000000016600000000E1
:100B14000000000135000100000000000150000049
:100B24000000000000010201010000000201013286
:100B340001030000000201010000000000000000A9
:100B44000000000000000000000081000000000020
:100B54000201012000000000000201015200000017
:100B64000000020101D80000000000020101600041
:100B74000000000000000100000000000000000070
:100B84000000000000000000000000000000000061
:100B94000000000000000000000000000000000051
:100BA4000000000000000000000000000000000041
:100BB4000000000000000000000000000000000031
:100BC4000000000000000000000000000000000021
:100BD4000000000000000000000000000000000011
:100BE40000000031010100000000000100000000CD
:100BF40000000000000000000000000000000000F1
:100C040000000000000000000000000000000000E0
:100C14000000000000000000004B0001080000027A
:100C24000101480001080000020101420101000025
:100C340000020101440000000000020101B90000AB
:100C4400000000000001AB0000000000000001ED06
:100C540000070700070207015A000108000002010B
:100C64000100000000EF6019000003000000000113
:100C74000010000006000000000000000104000055
:100C84000000000000010500010000000000010157
:100C9400010100000000000100000000000000004D
:100CA400000300010000000201010B000108000024
:100CB4000201013B00020800000201016B0003086D
:100CC4000000020101BB0002000002020201EB006D
:100CD400030400030203019F00010000000000015F
:100CE4000000000000000000000000000000000000
:100CF40000000000000000000000000000000000F0
:100D040000000000000000000000000000000000DF
:100D140000000000000099000000000000000166CF
:100D24000000000000000001350001000000000088
:100D34000150000000000000000102010100000059
:100D4400020101320103000000020101C800010098
:100D54000000000001C50101000000000001810045
:100D64000000000002010120000000000002010157
:100D7400520000000000020101D80000000000023F
:100D840001016000000000000000011500010000E6
:100D940000000001110101000000000001B7000083
:100DA400000000000001E900000000000000011341
:100DB40000010000000301010C0001080000030110
:100DC400016C0003080000030101EC0003040003AC
:100DD40003030112010100000003010134010300B7
:100DE4000000030101210000000000030101DC00F8
:100DF40000000000030101000000000000000000EA
:100E040000000000000000000000000000000000DE
:100E140000000000000000000000000000000000CE
:100E2400000000000000000000000000004B000172
:100E34000800000301014800010800000301014209
:100E4400010100000003010144000000000003014F
:100E540001B90000000000000001AB000000000028
:100E6400000001ED00070700070307015A0001080D
:100E7400000002010100000000C860190000030026
:100E84000000000100100000060000000000000047
:100E94000104000000000000000105000100000042
:100EA4000000010101010000000000010000000039
:100EB40000000000000300010000000201010B001B
:100EC400010800000201013B0002080000020101C8
:100ED4006B0003080000020101BB000200000202D3
:100EE4000201EB00030400030203019F0001000060
:100EF40000000001000000000000000000000000ED
:100F040000000000000000000000000000000000DD
:100F140000000000000000000000000000000000CD
:100F24000000000000000000000099000000000024
:100F3400000001660000000000000001350001000F
:100F44000000000001500000000000000001020148
:100F5400010000000201013201030000000201014E
:100F6400C80001000000000001C5010100000000EC
:100F740000018100000000000201012000000000C7
:100F840000020101520000000000020101D800002B
:100F940000000002010160000000000000000115D3
:100FA4000001000000000001110101000000000028
:100FB40001B70000000000000001E900000000008B
:100FC4000000010300010000000301010B000108FF
:100FD40000000301016B0003080000030101EB00A2
:100FE40003040003030301020101000000030101E3
:100FF400320103000000030101200000000000038F
:101004000101D800000000000301010000000000FD
:1010140000000000000000000000000000000000CC
:1010240000000000000000000000000000000000BC
:1010340000000000000000000000000000000000AC
:10104400004B0001080000030101480001080000F2
:1010540003010142010100000003010144000000FA
:101064000000030101B90000000000000001AB0012
:10107400000000000000010000000000000000006B
:101084005A0001080000020101000000002041197B
:101094000000030000000001001000000600000032
:1010A4000000000001040000000000000001050031
:1010B4000100000000000101010100000000000126
:1010C4000000000000000000000300010000000216
:1010D40001010B00010800000201013B00020800AD
:1010E400000201016B0003080000020101BB0002C1
:1010F400000002020201EB00030400030203019F4B
:1011040000010000000000010000000000000000D9
:1011140000000000000000000000000000000000CB
:1011240000000000000000000000000000000000BB
:101134000000000000000000000000000000990012
:101144000000000000000166000000000000000133
:101154003500010000000000015000000000000004
:10116400000102010100000002010132010300003C
:1011740000020101C80001000000000001C50101D6
:1011840000000000000181000000000002010120B5
:1011940000000000000201015200000000000201F2
:1011A40001D80000000000020101600000000000FE
:1011B4000000011500010000000000011101010000
:1011C4000000000001B70000000000000001E90079
:1011D40000000000000001130001000000030101F1
:1011E4000C00010800000301016C00030800000367
:1011F4000101EC00030400030303011201010000D8
:101204000003010134010300000003010121000077
:10121400000000030101DC000000000003010131B3
:1012240001010000000000010000000000000000B7
:1012340000000000000000000000000000000000AA
:10124400000000000000000000000000000000009A
:1012540000000000004B00010800000301014800E9
:101264000108000003010142010100000003010123
:10127400440000000000030101B900000000000068
:101284000001AB00000000000000010000000000AD
:10129400000000005A0001080000020101000000E3
:1012A40000C225390000003C60000000001000006E
:1012B400060000000000000001040000000000001F
:1012C400000105000100000000000101010100000F
:1012D4000000000100000000000000000003000105
:1012E4000000000201010B00010800000201013BA3
:1012F40000020800000201016B0003080000020163
:1013040001BB0002000002020201EB00030400031F
:101314000203019F00010000000000010000000022
:1013240000000000000000000000000000000000B9
:1013340000000000000000000000000000000000A9
:101344000000000000000000000000000000000099
:101354000000990000000000000001660000000089
:101364000000000100000000000000000000000078
:10137400000000000000020101000000020101322F
:101384000103000000020101C80001000000000088
:1013940001C50101000000000001810000000000FF
:1013A40002010120000000000002010152000000BF
:1013B4000000020101D800000000000201016000E9
:1013C4000000000000000115000100000000000101
:1013D400110101000000000001B70000000000003E
:1013E4000001E9000000000000000103000100000A
:1013F400000301010B00010800000301016B00035D
:10140400080000030101EB000304000303030102CD
:101414000101000000030101320103000000030187
:1014240001200000000000030101D80000000000BA
:1014340003010100000000000000000000000000A3
:101444000000000000000000000000000000000098
:101454000000000000000000000000000000000088
:101464000000000000000000004B00010800000222
:101474000101000000000000000000000000000066
:1014840000000000000000000000000000B900009F
:10149400000000000001AB0000000000000001009B
:1014A40000000000000000005A00010800000201D2
:1014B4000100000010B5E0B1D9B10023012243605E
:1014C40080F822200C6804604A6880F820208A682A
:1014D4000261CA6812054261FF22C4F884204FF0F9
:1014E400502401688C6701680A62016818464A64DE
:1014F40010BD0120FCE738B102680020136C23F012
:10150400FF031943116470470120704770B5C8B1D7
:1015140005689DF918609DF91C00AC6C40EAC60092
:1015240040EAC3239DF910006FF3140443EA002337
:101534009DF9140043EA801343EA423242EA8141AE
:101544002143A96470BD40B102680020136C23F4E8
:101554007F4343EA0121116470470120704770B54D
:10156400C8B105689DF918609DF91C002C6D40EA0E
:10157400C60040EAC3239DF910006FF3140443EA44
:1015840000239DF9140043EA801343EA423242EAFD
:1015940081412143296570BD18B103680020596059
:1015A40070470120704730B103680139C1F313015A
:1015B4000020596270470120704708B1036819621E
:1015C400704718B10368186900F00100704720B132
:1015D4000268536943F001035361704738B50D46FF
:1015E4000446A8B10368DA61C36A0BB101209847C5
:1015F40023689D612046FFF7E4FF0028FAD02046C7
:10160400FFF7E5FFE36A0BB100209847002038BDDF
:101614000120FCE728B103685868C04300F00100CA
:1016240070470120704708B103685868704720B1BB
:101634000268536D61F38E235365704708B10368E4
:10164400D960704710B10368D868C0B2704770B5EC
:10165400E8B105689DF91C609DF92000AC6A40EA78
:10166400C6009DF910606FF3150440EAC6209DF989
:10167400146040EA06209DF9186040EA861040EAAA
:10168400433343EA824242EA41512143A96270BD95
:1016940050B103681A6821B142F0010200201A60B7
:1016A400704722F00102F9E70120704750B1036846
:1016B4001A6821B142F4001200201A60704722F423
:1016C4000012F9E70120704750B103689A6821B10C
:1016D40042F0100200209A60704722F01002F9E7ED
:1016E4000120704730B580B10568BDF80C00AC68C6
:1016F400800640EA8353002043EA81416FF39E143D
:1017040041EA82122243AA6030BD0120FCE730B1D5
:1017140002680020936861F302039360704701201C
:10172400704750B103689A6821B142F0200200204A
:101734009A60704722F02002F9E70120704750B107
:1017440003681A6821B142F0807200201A60704761
:1017540022F08072F9E70120704750B103681A68DB
:1017640021B142F4000200201A60704722F4000202
:10177400F9E70120704750B103689A6821B142F03B
:10178400004200209A60704722F00042F9E70120ED
:10179400704750B103689A6821B142F008020020F2
:1017A4009A60704722F00802F9E70120704740B1BF
:1017B40002680020936D23F47F0343EA014191659D
:1017C40070470120704760B100685206836D42EA99
:1017D400012123F0007323F47F4319438165002022
:1017E400704701207047000010B5F0B10468A06D87
:1017F400B1B1022A84BF023AD2B213026FF30F00CE
:1018040003F4FE430343120654BF43F0806343F0E2
:10181400A06343F00A0323F000730020A36510BD06
:10182400034B034043F00073F7E70120F7E700BFE1
:101834000000FFFA30B10268936C23F4783343EA72
:1018440041319164704730B10268136D23F47833E9
:1018540043EA41311165704748B10368D3F88820E1
:1018640009B141F480310020C3F888107047012089
:10187400704718B10368D3F8880080B270477FB509
:10188400054600283DD0C46801B394F86A30002BA3
:1018940037D094F9726094F96E3094F96C1094F91D
:1018A4006D20039694F97160029694F97060019624
:1018B40094F96F400094FFF729FEEB6893F86A10DF
:1018C4002846FFF718FE002004B070BD94F8463097
:1018D400BBB194F94E6094F94A3094F9481094F9E4
:1018E4004920039694F94D60029694F94C60019650
:1018F40094F94B400094FFF709FEEB6893F8461007
:10190400DEE70120E0E77FB50546002836D0C4684D
:10191400E1B194F96E6194F96A3194F9681194F91A
:101924006921039694F96D61029694F96C610196AC
:1019340094F96B410094FFF7E9FDEB6893F86611A5
:101944002846FFF7D8FD002004B070BD94F95C610F
:1019540094F9583194F9561194F95721039694F94E
:101964005B61029694F95A61019694F95941009485
:10197400FFF7CCFDEB6893F85411E1E70120E3E7AE
:10198400F0B5C4680646174687B054B3382928D83A
:1019940001EBC1052C44237C1BB394F918C094F9C2
:1019A400133094F9122094F91110CDF810C094F961
:1019B40017C0CDF80CC094F916C0CDF808C094F93E
:1019C40015C0CDF804C094F914400094FFF73FFE0D
:1019D400F3683A462B443046197CFFF7FFFD07B005
:1019E400F0BD0120FBE7000070B50446002841D09B
:1019F400C368002B3ED000293CD093F893510121B9
:101A0400CDB3FFF7D0FD002214212046FFF7B8FF25
:101A14002046FFF708FEC30704D540F267413D485E
:101A240003F0F2FF002215212046FFF7A9FF054627
:101A340020B1002220461146FFF7A2FF02212046D2
:101A4400FFF7AAFD01212046FFF7ADFD00222B215F
:101A54002046FFF795FF6DB101212046FFF7A3FD56
:101A6400002202212046FFF78BFF2046FFF7D2FD1C
:101A74000028F5D070BDFFF796FD2A4602212046C6
:101A8400FFF77EFF2046FFF7CEFD2A4614212046AD
:101A9400FFF776FF10B92046FFF7C5FDE3681B7A10
:101AA400ABB3012103F00F051B0901FA03F3DBB209
:101AB4000DB11D46002300221521204643EA0525C9
:101AC400FFF75EFF064620B1002220461146FFF7CD
:101AD40057FF29462046FFF75FFD02212046FFF706
:101AE40062FD002203212046FFF74AFF002EC1D0E9
:101AF40001212046FFF757FD002202212046FFF76F
:101B04003FFF2046FFF786FD0028F5D0B2E7022507
:101B1400D1E700BF0166002038B504460D46FFF743
:101B240063FF29462046BDE83840FFF7A8BE38B514
:101B340004460D46FFF758FF29462046BDE83840C5
:101B4400FFF7E1BE10B5044640B10268936A6FF333
:101B5400150343F4802343F00103936203212046D9
:101B6400FFF721FD00229F212046FFF737FD204685
:101B7400FFF759FD20F07F4010BD70B504460028E2
:101B84003ED0C368012193F89351002D3BD0FFF759
:101B94000AFD002202212046FFF7F2FE88BB204600
:101BA400FFF741FDC0B2E368DD790DB120EA050518
:101BB400002215212046FFF7E3FE064620B100224D
:101BC40020461146FFF7DCFE29462046FFF7E4FCD9
:101BD40001212046FFF7E7FC002203212046FFF7FE
:101BE400CFFE6EB101212046FFF7DDFC0022022169
:101BF4002046FFF7C5FE2046FFF70CFD0028F5D070
:101C040070BD0020CFE7FFF7CEFC2A460221204614
:101C1400FFF7B6FE00283ED12046FFF704FDC6B20A
:101C2400002214212046FFF7ABFE18B92046FFF727
:101C3400FAFCC5B2E368D97909B126EA01010022A8
:101C4400204641EA05251521FFF79AFE064620B1F4
:101C5400002220461146FFF793FE29462046FFF74F
:101C64009BFC02212046FFF79EFC00220321204614
:101C7400FFF786FE002EC3D001212046FFF793FC18
:101C8400002202212046FFF77BFE2046FFF7C2FC1C
:101C94000028F5D0B4E72E46C2E7F8B5044650B3A1
:101CA4000023FF2201214FF050260568436080F88D
:101CB400221080F82030C5F884200568AE670568D6
:101CC4002A6205686A6480F823308360FFF7E0FCC9
:101CD4002046FFF737FFC0F30727C0F30745C6B216
:101CE40029463A463046FEF775FC0146E06020B9C5
:101CF4002046FFF7CDFC01200AE03A46294630464B
:101D0400FEF77CFC00B1606194F823500DB1002013
:101D1400F8BD2046FFF731FF6369B3F1807F0DD929
:101D240021212A462046FFF72BFE94F8201019B9EA
:101D34002046FFF7FCFEEAE70121F9E794F82010BA
:101D440019B92046FFF7E8FEE1E70121F9E760B1A0
:101D5400006850B1836D090623F0807301F080712F
:101D640023F0FF0311431943816570472DE9F047C0
:101D74000E4691460546002843D0C468ACB1B1F57F
:101D8400805F3ED3A279120302F580528A4238D38F
:101D9400C1F30902E17A1A44B2EB012F31D81C468F
:101DA4009A460027BAF1000F02DC2046BDE8F0870E
:101DB400BAF1400FD046A8BF4FF04008284641462C
:101DC400FFF7F1FB324632212846FFF7D9FD3B46A7
:101DD400002FB8BFFB1C4FEAA80123F0030201EB5C
:101DE400A3014A4409EB81018A4204D14744464491
:101DF400AAEB080AD6E72846FFF715FC42F8040BBD
:101E0400F2E70024D1E738B50446D0B10368AB212A
:101E14001D6815F0010502BF1A6842F001021A603C
:101E24000268936A6FF3150343F00103936200227F
:101E3400FFF7D4FB25B92268136823F0010313606C
:101E440038BD0120FCE700207047000008B5E8B168
:101E540003680F4A93420CD002F58052934215D185
:101E6400062001F02BFA022805D1BDE8084001F054
:101E74005ABA0420F5E7032803D1BDE8084001F06D
:101E840055BA0120BDE8084001F0C0BA002008BDE1
:101E94000010045038B5054608B9002038BDFFF7D6
:101EA400D1FB04460028F8D02846FFF7CFFFB0FB4B
:101EB400F4F0F3E708B1FFF745BEFF2070477FB5A4
:101EC40004460A4651B3C56895F8FF31002B3BD050
:101ED40090F82030C3B395F9076295F9022295F979
:101EE400033295F90112039695F90662029695F963
:101EF4000562019695F904520095FFF707FBE36824
:101F0400204693F8FF11FFF7F6FA0121204694F8D2
:101F14002520FFF769FC002004B070BDFFF764FCC6
:101F2400636994F82010B3F1807F06D919B920466B
:101F3400FFF7E9FCEFE70121F9E719B92046FFF7BC
:101F44009EFCE8E70121F9E70120E5E730B5054605
:101F5400012487B078B10494002422462146234604
:101F6400CDE90244CDE90044FFF771FB2246214646
:101F74002846FFF733FB204607B030BD10B50446B2
:101F8400F0B102681420D2F8943043F00043C2F850
:101F9400943002F0F1FC2368D3F89420D205FBD5E9
:101FA400D3F89400D3F89420C0B222F00042C3F8CE
:101FB400942094F8253023F07F03034384F82530DC
:101FC40010BD00002DE9F8430E4690461F46044616
:101FD400002800F09D80002900F09A80FFF76AFA3B
:101FE4002068FFF730FF3369002184F83430B36888
:101FF4000546A363F36884F824101B05E3630223F6
:1020040084F836303369C4F808805A1E5342534169
:1020140084F82330B8F1000F58D0002F56D03B6815
:10202400C8F80030A368FA685A601022A3689A605E
:102034008022A368D960A3681A614FF48052A36810
:102044005961A3689961A368D961A3681A62A368F6
:102054005962C0B16FF07F43984214D0012694F8BE
:102064002330002B3DD1002E3DD12046FFF7CBFE7F
:10207400304602F081FC322002F07EFC2046FFF75D
:1020840019FF05462FE001212046FFF7D0FA5E4BE9
:10209400A26920469A424FF000028CBF01211146EA
:1020A400FFF755FE20469DF82010FFF7C7FA94F875
:1020B40035302BB1012B10D100212046FFF73FFB17
:1020C40001212046FFF7E4FA0026C8E7002DDED000
:1020D4006FF07F439D42C1D1D9E7022BF0D101219A
:1020E400EBE7002ECAD025635FFA85F8C5F307290C
:1020F400C5F307454A4629464046FEF76BFA0746AC
:10210400E06038B901462046FFF7C2FAC4E90E7709
:1021140001200BE04A4629464046FEF76FFA08B113
:10212400E063606194F8233013B10020BDE8F883C4
:10213400002E65D12046FFF720FD6369B3F1807F4F
:1021440030D9324621212046FFF71AFC94F820307A
:1021540053B93146204684F82660FFF7E8FC07218E
:102164002046FFF7D4FAE0E701212046FFF7DFFC21
:1021740094F82670012FF2D14A4629464046FEF7CC
:1021840047FA38B12046FFF7F9FE39462046FFF7F3
:1021940096FEE4E7324631462046FFF725FB84F8F5
:1021A4002660DCE794F8203033B93146204684F8C1
:1021B4002660FFF7B1FCB8E701212046FFF7ACFC2D
:1021C40094F82670012F15D14A4629464046FEF759
:1021D4001FFA38B12046FFF7D1FE39462046FFF7F3
:1021E4006EFEA2E7324631462046FFF7FDFA84F838
:1021F40026609AE7324631462046FFF7F5FA94E71F
:1022040084F8263091E700BF00E1F5051FB5019081
:10221400019B114C0BB1206840B9002001F006F974
:102224000E4BB0FBF3F0019B20609BB1302882BFC2
:10223400019B03F1FF330193019B5BB10522019BD9
:10224400013B4343B3FBF2F30393039B5A1E0392F4
:10225400002BFAD104B010BD98A5002040420F0015
:1022640070B50E461546044658B302220368DA6078
:102274000268936D23F00073936502680020D2F81E
:10228400943043F00043C2F89430FFF7BFFF1420AA
:10229400FFF7BCFF2068D0F89430DB05FBD5D0F8FD
:1022A4009430D0F89420DBB222F00042C0F894209D
:1022B4005A1E327001220020043B2B702368DA601E
:1022C40070BD0120FCE7000037B514460546002820
:1022D40043D0002941D0FFF7EDF82846E1B2FFF7DB
:1022E400ADF92846FFF7D6FD1D4B984230D91D4B5A
:1022F40098422FD91C4B984222D940F2B63440F26E
:1023040074431A4A904288BF1C4600220121284681
:10231400FFF71DFD00212246022328460091FFF706
:10232400E1F9044648B906212846FFF7F0F90446C6
:1023340018B901212846FFF7ABF9204603B030BD98
:102344000B4B4FF43E749842DFD800221146DEE76F
:10235400B424FAE74FF4BE74F7E70124EDE700BFB5
:1023640000366E01006CDC0200D8B805000E2707A9
:1023740000879303F0B50E461746054687B0D8B1DB
:10238400072200240323CDE903220121CDE90143DF
:1023940000942346FFF75BF902212846FFF703F96F
:1023A40039462846FFF7F8F83246C0212846FFF799
:1023B40015F9204607B0F0BD0120FBE72DE9FF41E8
:1023C4000C4616461F460546002840D06B46214A57
:1023D4001068516803C39068D16803C32846E1B20A
:1023E400FFF7C9F907F110036B4413F8088C4FEA9F
:1023F40048185FFA88F80CB304AB03EB560313F8E0
:10240400104CA40044F0210464B204F0FD02002145
:102414002846FFF7AFFF711E284649B2FFF70AFAB4
:10242400424604212846FFF7A5FF791E284649B2F3
:10243400FFF709FA002004B0BDE8F08106F11003AB
:102444006B4413F8104CA40044F00104DCE70120B1
:10245400F1E700BF54540020F0B50E461746054678
:1024640087B0D8B1072200240223CDE90322012139
:10247400CDE9014300942346FFF7E9F804212846F7
:10248400FFF791F839462846FFF786F83246C0210F
:102494002846FFF7A3F8204607B0F0BD0120FBE76C
:1024A40030B5054685B0A0B100240721022390F879
:1024B4002520CDE902115200CDE9004352B2234652
:1024C400FFF724F821462846FFF715F8204605B003
:1024D40030BD0120FBE730B5054685B090B107213A
:1024E40000240223CDE90211CDE90043234690F9EB
:1024F4002620FFF734F880212846FFF724F82046E9
:1025040005B030BD0120FBE7F0B5044687B00028D4
:102514003BD090F82330052B34D0033B012B2ED82D
:10252400012603270023072576B27FB21A4601212C
:102534002046CDE90355CDE901570096FFF787F80A
:102544000022FF212046FFF749F894F82330052B99
:102554000FD1002301211A462046CDE90355CDE9C8
:1025640001570096FFF773F80022FF212046FFF77A
:1025740035F8002002F000FA032002F0FDF90020F3
:1025840007B0F0BD03260227CCE70120F8E70000DE
:1025940030B5044685B000286ED000296CD0FEF713
:1025A40089FF23680DF10E020DF10F0120461D680D
:1025B400FFF756FE01212046FFF740F82046FFF7BB
:1025C40069FC2E4B05F00105984236D814230321EB
:1025D4008DF80E308DF80F3008460023B42284F8AD
:1025E400251084F82610062100902046FFF77AF87B
:1025F40007212046FFF78BF801212046FFF7C9F891
:102604009DF80E102046FFF7D2F800229DF80F1017
:102614002046FFF7D8F801212046FFF739F80121B9
:102624002046FFF743F82DB9154B1B6803F003034D
:10263400032B1DD1002005B030BD124B98420BD99D
:1026440003F1377303F5D84398420BD907211420BB
:10265400082340F23252C2E705210E20032340F240
:10266400B632BCE706211120052340F27442B6E7D6
:102674002046FFF749FFDDE70120DCE7016CDC02BF
:1026840000000C50011C4E0EF0B5044685B0002825
:1026940000F09680002900F09380FEF70BFF23687A
:1026A4000DF10E020DF10F0120461E68FFF7D8FD53
:1026B40001212046FEF7C2FF2046FFF7EBFB414B0A
:1026C40005469842404F06F0010650D814230321D2
:1026D4008DF80E308DF80F30B4220023009120467F
:1026E4000621FEF7FFFF07212046FFF710F801211E
:1026F4002046FFF74EF89DF80E102046FFF757F8D6
:1027040000229DF80F102046FFF75DF801212046B6
:10271400FFF707F801212046FEF7BAFF0121204602
:10272400FEF7C4FF2EB994F8273013B92046FFF7FB
:10273400EBFEBD423AD9254B9D423CD906220223E9
:1027440088253B2684F82630012184F8252020465C
:10275400FFF711F8324600212046FFF77DFE2A4696
:1027640004212046FFF778FE002005B0F0BDB842F2
:102774000DD9164B98420FD903F1377303F5D8439B
:1027840098420ED81421082340F23252A6E70E21B3
:10279400032340F2B632A1E71121052340F274422B
:1027A4009CE7172109234FF4BE6297E70422002314
:1027B40008253326C6E70522002308253726C1E766
:1027C4000120D2E7016CDC02011C4E0E01882A11A3
:1027D40070B50E461546044686B0F8B107220323A9
:1027E400CDE901230023CDE9032200930121FEF763
:1027F4002EFF31462046FEF7E0FE02212046FEF77A
:10280400D2FE29462046FEF7C7FE4FF480326021EF
:10281400204606B0BDE87040FEF7E0BE06B070BDCD
:1028240038B504460122FFF7B3FE2046FFF732FB1A
:10283400154B98421FD9154B98421FD903F1F473D5
:1028440003F5904398421CD942F28F7541F28F737D
:102854000F4A904298BF1D4601212046FEF734FFDF
:102864002A4620460021FFF7B3FF01212046FEF748
:1028740082FF002038BD4EF28F75EDE74FF28F7561
:10288400EAE740F28F75E7E781FE210A01D4650C7F
:1028940001882A111FB560B10721032390F8252070
:1028A400CDE90013013A0023CDE9021152B2FEF73B
:1028B4002DFE05B05DF804FB1FB560B107210323AD
:1028C40090F82620CDE90013013A0023CDE9021146
:1028D40052B2FEF744FE05B05DF804FB2DE9FF4754
:1028E4000B69044680F823300B69033B032B00F289
:1028F4008580DFE803F0026358792046FFF748FE3D
:102904000322064608212046FFF734FD2046FFF740
:10291400C1FA4D4B98425FD903F1A46303F5834395
:1029240098425BD903F1377303F5D843984257D9DA
:10293400464B984256D9464B984294BF07250025EA
:102944004FF0000807274FF0030A4FEA45094346B2
:1029540009F1FF3239462046CDE90277CDE9008AF4
:10296400FEF7D4FD41462046FEF7C5FD43466A1EE8
:1029740039462046CDE90277CDE9008AFEF7EFFD1E
:1029840080212046FEF7DFFD2B464A4601212046E2
:10299400FFF714FD4FF6FF712046FEF75DFF30464A
:1029A40004B0BDE8F0872046FFF76EFE2046FFF72F
:1029B40077FD2046FFF78FFD0026EBE72046FFF763
:1029C400E7FD4322064608212046FFF7D3FC0121F8
:1029D4002046FEF7C2FE99E70325B1E70425AFE7D9
:1029E4000525ADE70625ABE72046FFF719FF20468E
:1029F400FFF750FF2046FFF75FFFDDE700260325C2
:102A04004FF0010802272046FFF75EFC33460622FA
:102A140029462046CDE90067CDE90258FEF776FD48
:102A2400EB212046FEF767FD334632462946204611
:102A3400CDE90067CDE90258FEF791FD3821204623
:102A4400FEF781FD0646A5E70129DE0701EBC91360
:102A54000184D717000000000102030400000000F5
:102A64000402060170470000002310B5084A916B68
:102A7400814205D8D46B2144814201D958B210BD9A
:102A84000133052B02F14402F1D14FF0FF30F6E798
:102A9400C4A20020064A936B834206D8D26B134427
:102AA400834294BF0020012070470020704700BF7C
:102AB40078A0002003460244934200D1704703F8F3
:102AC400011BF9E738B50546FFF7E4FF044648B9AA
:102AD4002846FFF7C9FF431C06D04422034B02FBE0
:102AE400003038BD0248FCE72046FAE7C4A20020C3
:102AF40078A000200120704710B50C46C9B12AB94E
:102B0400022000F083FCB0FBF4F010BD00F0D6FB13
:102B14000228024602D100F006FCF4E7012802D1A3
:102B240000F0FEFBEFE7044B0448032A18BF1846E5
:102B3400E9E70846E9E700BF006CDC0200D8B80505
:102B44002DE9F74F442400252D4FDFF8C4A004FBE2
:102B540000749946DAF80030064688469346E562E2
:102B640013B1284C284BE362D8F80C30202B03D93E
:102B7400002003B0BDE8F08F86B3012E38D0B9F140
:102B8400010F04BF8F2384F82530DAF8003084F86D
:102B9400269043B1FFF7AEFF012201460546062009
:102BA400FFF7AAFFA0616821184A5B4601FB0622D1
:102BB400204641460095FFF705FA0028D8D1DAF8F7
:102BC4000030EDB2A5623BB1442303FB0677A36B4F
:102BD400FA6B1344A36323610120CAE700F086FF64
:102BE4000122054601460420FFF786FFA061C6E7DF
:102BF40000F082FF3246054601460620F4E700BF96
:102C0400C4A2002078A0002065540020BCA00020AD
:102C140074A000200020704770B50D4C8AB0264681
:102C24004422002105AD0B48FFF744FF0FCE0FC52A
:102C340033682B6001AD04F114030FCB85E80F005A
:102C440000232A4605A90120FFF77AFF0AB070BDC8
:102C54003857002008A30020002070470020704748
:102C640000220C4B10B51A60FFF7D4FF041E18BFE6
:102C74000124FFF7D1FF08B144F00204FFF7ECFF91
:102C840008B144F00404FFF7E9FF08B144F0080474
:102C9400204610BD74A0002010B586B000F026FFB9
:102CA4003022002104461748FFF704FF142201A82C
:102CB400FFF700FF144B0193A3F558335B68C3F38C
:102CC4000223023B042B1AD8104AD35C8B4208BF60
:102CD4000623102205934FF08053CDE9033200F010
:102CE40003FF0346591E4B4206484B41224601A9A5
:102CF40080F82730FFF7F2FD002006B010BD062350
:102D0400E7E700BF44A00020001004503057002023
:102D1400B0F1805F08B502D0B0F1C04F04D10348D0
:102D2400FFF7B8F8400808BD0020FCE744A00020E5
:102D34000303050206000000002004500200000006
:102D44000000001220000000000000001C100850C9
:102D5400000000003300000001000000FFF7D8BFAE
:102D6400EFF3108072B6704780F31088704740BF4D
:102D7400714A1368012B04D04FF0010313606F4AAA
:102D840010606F4A11606F484FF0805101607047C6
:102D9400EFF3108272B66848016889B34FF00001FE
:102DA400016066480168B1B1EFF309811EF0100FAC
:102DB40008BF21ED108B21E9F00FEFF30B8441F8EC
:102DC400044D4FF000041EF0100F08BF012441F819
:102DD400044D006801605A490968096808C910C9A6
:102DE40084F30B88B1E8F00F002B18BFB1EC108B03
:102DF40081F309884EF0100E002B18BF2EF0100E30
:102E040082F310884EF0040E70474F484FF47F0150
:102E1400D0F8002041EA0201016070474849086087
:102E2400EFF3148222F0040282F3148843494FF032
:102E34000000086040494FF00100086042484FF428
:102E44007F01D0F8002041EA020101603D484FF0C3
:102E5400805101603D480068006800BF80F3088825
:102E640061B662B6704700BF20BF7047EFF30880B9
:102E74001EF0040F01D0EFF3098020E9F00FEFF307
:102E84000B8440F8044D40F804ED40F804ED1EF0C6
:102E9400040F02D080F3098801E080F3088800B5AC
:102EA40002F056FD5DF804EB4EF0040E7047EFF3AC
:102EB40008801EF0040F01D0EFF3098020E9F00F21
:102EC400EFF30B8440F8044D40F804ED40F804EDB2
:102ED4001EF0040F02D080F3098801E080F3088813
:102EE40000B502F081FD5DF804EB4EF0040E70476E
:102EF40010B4EFF3038410B47C4600B500B54DF86C
:102F040004CD0FB4089C2DE9F00FEFF30B8410B43B
:102F140000B5684602F034FD01BC10BC84F30B8894
:102F2400BDE8F00F0FBC5DF804CB5DF804EB10BCFA
:102F340010BC10BC70470000E4C90020ECC900209C
:102F4400E8C9002004ED00E020ED00E008ED00E019
:102F5400104A1378FF2B05D10F4B9B68DB4303F01A
:102F6400010313700D4A506B4BB10D4B1B681BB919
:102F74000A23B0FBF3F070470A4B1B88F9E74FF4C0
:102F84007A72C0F30E03C00B5343504300EBD330AB
:102F9400704700BF569B002000B00C5000000C503E
:102FA400D0C30020CCC3002008B5002A00F055810E
:102FB400002900F05281612800F24A81DFE810F014
:102FC40062002C014801690028016D0024014801B8
:102FD4007100F0001C0118014801750048017900D6
:102FE4007D004801810048014801860013018B00DF
:102FF40090009500A200A700AC00480148014801D8
:10300400B100B6000E010901BB00C000480148012F
:10301400C50048014801CA004801CF00D400E900B6
:10302400F900480148014801480148014801D90014
:103034000401DE003F01E100E300480148014801CA
:10304400E5004801E700480148014801EB00480158
:10305400480148014801480148014801F200F200D2
:10306400F7004801480148014801FB0048014801B4
:1030740000012001300135013A019A0048010201A2
:103084004401F20000230B6001234FF0A0401360C1
:1030940008BD00230B600223F7E700230B60042321
:1030A400F3E700230B601023EFE700230B602023DA
:1030B400EBE700230B604023E7E700230B6080234A
:1030C400E3E700230B604FF48073DEE700230B601B
:1030D4004FF48063D9E700230B604FF40063D4E717
:1030E40000230B604FF48053CFE700230B604FF4B1
:1030F4000053CAE701230B604FF400134FF08040E4
:103104001360C5E700230B604FF48043BDE7002341
:103114000B604FF40043B8E700230B604FF4803397
:10312400B3E700230B604FF40033AEE700230B60DA
:103134004FF48023A9E700230B604FF48013A4E726
:1031440000230B604FF400139FE700230B604FF440
:1031540080039AE700230B604FF0007395E7002388
:103164000B604FF0006390E700230B604FF0805337
:103174008BE700230B604FF0004386E701230B60CD
:1031840083E7012386E7012388E701238AE70123F4
:1031940090E7012396E701230B604FF4007374E773
:1031A40001239EE701230B604FF400236DE7012305
:1031B400C2E70123CFE701230B604FF4000364E768
:1031C4000123C3E70023F7E700230B604FF4807368
:1031D40094E700230B604FF480638FE700230B60B8
:1031E4004FF400738AE700230B604FF4004385E734
:1031F40000230B60402381E700230B6020237DE73D
:1032040000230B60102379E700230B60082375E784
:1032140000230B60042371E700230B6002236DE796
:1032240000230B604FF4801368E700230B604FF416
:10323400002363E700230B604FF480235EE7002341
:103244000B604FF4803359E700230B60802355E76C
:1032540040F24B31024802F0D7FB002018E700BFD0
:103264003366002007B5134A134902EBC002D1F8B4
:103274009C309278022862F30303C1F89C300DF16C
:10328400070011D1FDF72EF810B10B238DF807308C
:10329400094A9DF80710D2F8943061F30303C2F889
:1032A400943003B05DF804FBFDF728F80028EFD054
:1032B4000D23EBE7C864002000A00C504FF0A0439E
:1032C4000D281A6A0DD842F6F173C34013F0010FAA
:1032D4000CBF012303238340134023FA00F0C0B240
:1032E40070470123F7E70000012803D002280ED01D
:1032F400002070474FF0A043DB6A63B113F0010074
:103304000AD00648C3F3830303FB000070474FF061
:10331400A0431B6BF1E71846704700BF00366E01EF
:103324000120FFF7E1BF0220FFF7DEBF0020704756
:1033340038B5244BA1F1B774A4F558549C423FD836
:10334400012839D0022839D040F2A4611E4802F085
:103354005BFB1E4B0020D3F8942091075EBFD3F88B
:10336400942042F00202C3F89420D3F89420D207A8
:103374005EBFD3F8942042F00102C3F89420144AAB
:103384002B68B4FBF2F423F001032B602B6823F4C5
:10339400005323F03C0343EA840343F4805343F093
:1033A40001032B6001F0E8FA0A2001F0E5FA2B682A
:1033B400002BFCDA002038BD064DCAE7064DC8E7ED
:1033C4000120F8E7002A75153366002000B000508C
:1033D40000366E012C0000503000005001460120E0
:1033E400FFF7A6BF01460220FFF7A2BF4FF0A0429D
:1033F400D36A002023F00103D36270474FF0A04248
:10340400136B002023F0010313637047012808D1D4
:103414004FF0A0431B6A03F00303032B01D1FFF712
:103424007FBF0148704700BF006CDC02021E08BF6A
:10343400012210B51046FFF7E9FF012A04460AD01D
:10344400022A10D040F274710A4802F0DDFA012316
:10345400B4FBF3F010BD4FF0A0435B6ADBB2012B69
:10346400B8BF0123F4E74FF080435B6903F03F03E7
:10347400F5E700BF336600204FF0A04310B50D28D8
:103484001B6A18D842F6F172C24012F0010F0CBF49
:103494000122032202FA00F411404FF0A04223EA71
:1034A400040381400B43136220B90120FFF7BEFFE0
:1034B400024B186010BD0122ECE700BF34940020D9
:1034C4000028D8BF002008B5CCBFFF23034600293D
:1034D40012DB002A43F4E06340EA01200EDA4FF0E5
:1034E400A0414A6A22EA030303434B620120FFF727
:1034F4009DFF074B186008BD002A04DB43F4E0433A
:1035040040EA0230EBE7002BF0D0FF23E7E700BFEF
:103514003494002070B50C46194D0646FFF7A2FE00
:103524002B69FA2023F004032B6101F025FA302CD7
:103534000DD800210846FFF79FFF30200422002108
:10354400B0FBF4F0FFF7BCFF0024204670BD01F08F
:10355400A1F90C4800EBC60043680B48EB616043DB
:10356400FFF73CFF04460028EFD10121062208465C
:10357400FFF7A6FF03212046FFF77EFFE4E700BF25
:1035840000B00050C864002040420F002DE9F34110
:103594001F4C204F04EBC0023B6B9278054662F34C
:1035A40017534FEAC0083B630DF107000E46FCF7C2
:1035B40099FE10B10B238DF807309DF8071014F90C
:1035C400352030250A440021FB6C084662F385034C
:1035D400FB64FFF751FF302EB5FBF6F504D940F636
:1035E4002B210D4802F010FA042200212846FFF78F
:1035F40067FFFFF7FBFE01F059F94444074B62688B
:10360400DA611A6942F004021A6102B0BDE8F0817D
:10361400C864002000A00C503366002000B00050A5
:1036240070B5314E054633780C46012B43D9023B25
:10363400012B02D90125284670BD2C4B53F82120BB
:10364400FFF771FE9042F5D8012905D82946204696
:10365400FFF79CFF002535E000210846FFF70CFF2B
:103664002046FFF7FFFDFA2001F086F9FFF7BEFEC2
:10367400302D0DD801F01AF900210846FFF7FCFEA1
:10368400042200213020B0FBF5F0FFF719FFE1E739
:1036940001F000F916486843FFF7A0FE054600282C
:1036A400C8D1012106220846FFF70AFF0321284654
:1036B400FFF7E2FECEE7012909D901462046FFF7CC
:1036C40029FF05460020347001F056F9B3E78B4218
:1036D40003D14FF0FF321146D4E790210220FFF7C7
:1036E40019FF0028A6D1B1E788940020B86400200F
:1036F40040420F00002808B511DD002926DB01280F
:1037040000D139B13F2343F4E06340EA0120002AA9
:103714000BDA0EE00146F5E700200346F3E7002943
:10372400FADA002A0CDB0020034643F4E04340EAC3
:1037340002304FF080414A6922EA030303434B619C
:103744000220FFF773FE024B186008BD3F23DEE73B
:103754003494002038B5041E08BF012420460D46C9
:10376400FFF764FE012C08D0022C0ED00A4840F268
:10377400957102F049F9002006E04FF0A0435B6A1E
:103784003DB1C3F30223D84038BD4FF080435B6999
:10379400F6E7C3F30233F6E7336600204FF08043C5
:1037A4001A6842F480221A601A685203FCD51A6817
:1037B40022F480221A607047024A136823F004033B
:1037C4001360704700000440134A1368590721D45A
:1037D400116800280CBF01234FF0FF3341F00401AE
:1037E40011604FF0804243F4801313601168002984
:1037F400FCD0094A116CC80606D5116C41F00201CF
:103804001164116CC906FCD44FF080410A6822EAA5
:1038140003030B60704700BF0000044007B56A460D
:1038240001A9FFF7C1FBB0F1A04F0FD1019B13B168
:10383400012B11D10C480368009A134303600368F9
:1038440023EA0203036003B05DF804FBB0F1804F88
:1038540002D1019B002BEED040F62C01034803B0AB
:103864005DF804EB02F0D0B8040000503366002089
:1038740007B56A4601A9FFF797FBB0F1A04F05D140
:10388400019B83B1012B06D10F4B0DE0B0F1804FAA
:1038940001D1019BB3B140F64B010C4803B05DF874
:1038A40004EB02F0B1B80A4BEFF31081012282F36A
:1038B40010881A68009802431A6081F3108803B0D4
:1038C4005DF804FB034BEFE70C0000503366002067
:1038D400080000500400004007B56A4601A9FFF73C
:1038E40063FBB0F1A04F05D1019B83B1012B06D13D
:1038F400104B0DE0B0F1804F01D1019BBBB140F6FC
:1039040068010D4803B05DF804EB02F07DB80B4B81
:10391400EFF31081012282F310881A68009822EADA
:1039240000021A6081F3108803B05DF804FB044BB5
:10393400EEE700BF0C000050336600200800005082
:10394400040000402DE9F8432A4B1B69002B4EDA92
:103954004FF0A0456B6B4FF00B096FF30F036FEA49
:1039640093336FEA83334FF400744FF48078224E1C
:103974006B63736F214F43F4C0037367736F43F03A
:103984004063736747F6E073726F03EA44133A4087
:1039940013437367032000F0EFFF6B6B43F0804326
:1039A4006B636B6B002BFCDAA96BAA6B6B6B90B22D
:1039B40023F08043B0EB114F6B634FEA114335BFE3
:1039C4001B1AC01A4444A4EB080435BF98B280B251
:1039D400A4B2A4B23F2804D9B9F101094FEA5808A6
:1039E400D0D1A02894BF00200120BDE8F883012095
:1039F400FBE700BF00000C5000A00C501F80FFFF2D
:103A04000028D6BF0020FF230346002910DB09024B
:103A140001F4E061002A43F4E06340EA010009DABA
:103A24004FF0A0414A6C22EA030303434B647047FE
:103A3400002A09DB002A08BF0122120302F4E04233
:103A440043F4E0431043EBE7002BF0D0FF23E7E718
:103A54004FF0A0435A6C22F480225A645A6C61F3EA
:103A640011425A64704708B50F20FFF735FF0D2047
:103A7400FFF732FF01200021FFF7EAFF02460C2086
:103A8400FFF7BEFF00210C20FFF7F6FC01F0B0FFAA
:103A940008BDF0280DD8902807D8302807D8182852
:103AA40094BF00210121FFF7BBBD0321FBE70221E5
:103AB400F9E701207047000000000000000000004A
:103AC40000882A1100882A11FB060900300310001F
:103AD400FD080A0031031100000B0D00130213004E
:103AE400020D0F001302130000207047014B1888C9
:103AF400704700BF22940020014B1888704700BF14
:103B0400209400200048704700E00012453A5C739E
:103B1400747564795C736633325C5369466C692DE1
:103B240053444B5C637573746F6D65725C626F6153
:103B34007264735C736633326C6235322D6E616EFF
:103B44006F5F626173655C6273705F696E69742E26
:103B54006300453A5C73747564795C736633325CF4
:103B64005369466C692D53444B5C637573746F6D74
:103B740065725C626F617264735C736633326C622B
:103B840035322D6E616E6F5F626173655C62737056
:103B94005F70696E6D75782E6300453A5C73747559
:103BA40064795C736633325C5369466C692D5344A3
:103BB4004B5C647269766572735C68616C5C6266A6
:103BC400305F68616C5F6770696F2E6300453A5CB3
:103BD40073747564795C736633325C5369466C69DB
:103BE4002D53444B5C647269766572735C68616CD6
:103BF4005C6266305F68616C5F6870616F6E2E63D3
:103C040000453A5C73747564795C736633325C5353
:103C140069466C692D53444B5C64726976657273B2
:103C24005C68616C5C6266305F68616C5F6D706972
:103C34002E6300453A5C73747564795C7366333241
:103C44005C5369466C692D53444B5C6472697665B8
:103C540072735C68616C5C6266305F68616C5F7231
:103C640063632E630052545F454F4B203D3D2072E9
:103C740000666C617368310038B50020FFF71EFBE5
:103C8400044628B900F006FE01212046FFF7F4FBA4
:103C940001210C20FFF7F0FBFFF726FF012863D07A
:103CA400022000F087FD0120FFF78EFD01F080FE69
:103CB40000F012FE012001F09FFE022001F064FEDC
:103CC400424B434A0120C3F8902001F07DFE01F0ED
:103CD40077FE01F051FE18B195213E4801F094FEA3
:103CE4003D4A3E48936843F00103936001F064FE4B
:103CF4004FF08042136943F010031361EFF3108512
:103D0400012383F31088364C23781BB9A221314850
:103D140001F07AFE2378013BDBB2237023B9314AE8
:103D2400D36A23F00103D36285F310882A4B9C687D
:103D340014F0010418D101F013FE64222146C820B6
:103D440001F04EFE01F014FE4FF41652B0FBF2F0F7
:103D54004FF47A72B2FBF0F21C4901320B6F23F478
:103D64007C7343EA02130B6702240425F020FFF757
:103D740090FE1D48FFF736FB002000F0FDFD1B4BB5
:103D84001C801B4B1D80FCF73BFA21462846FFF79D
:103D940073FB012200201146FCF73CFAFEF77CFF7E
:103DA40021460620FFF768FBFFF79EFE012808D195
:103DB4000C4A136B23F001031363BDE83840FEF78C
:103DC4002BBFBDE83840FCF79DBB00BF00A00C50E2
:103DD40000E204000C65002000B00C5000B000406C
:103DE4001084002000000C5000882A112294002026
:103DF4002094002008B500F001F9BDE80840012036
:103E040000F063BA704701460122002000F03CBA7A
:103E140000210122084608B500F036FABDE8084042
:103E240001220021104600F02FBA4FF4FA7008B5B1
:103E340000F0A2FD00F0A0F8BDE808400122114600
:103E4400104600F021BA08B500F079F8BDE8084042
:103E540001220A20114600F017BA012200210A208B
:103E640000F012BA014601220A2000F00DBA10B582
:103E74000123044610220921022000F005FF01233A
:103E840010220A21032000F0FFFE012310220B213F
:103E9400042000F0F9FE012310220C21052000F07B
:103EA400F3FE012310220D21092000F0EDFE012371
:103EB40010220E210A2000F0E7FE012310220F2118
:103EC4000B2000F0E1FE1022012311460C2000F02B
:103ED400DBFE012300221946082000F0D5FE012351
:103EE40000220321062000F0CFFE022C4FF0010334
:103EF40010D0042C21D0102206210D2000F0C4FE85
:103F04000121084601F004F8BDE810400121072012
:103F140000F0FEBF10220421184600F0B5FE012374
:103F2400102205210D2000F0AFFE2146BDE810400F
:103F340001230022072000F0A7BE0022DCE710B511
:103F4400012300225B21172000F09EFE01230022A2
:103F54005C21182000F098FE012330224FF49C715C
:103F6400222000F091FEBDE810400123302240F2EF
:103F74003911192000F088BE08B50022012352210E
:103F84000E2000F081FE0123002253210F2000F0B7
:103F94007BFE0123002240F25511102000F074FE34
:103FA400012300224FF4A771112000F06DFE0123BC
:103FB400002240F24F11122000F066FE012300227D
:103FC4004FF4A871132000F05FFE0123002240F299
:103FD4005111142000F058FE012300224FF4A9715E
:103FE400152000F051FE0123002240F25311162047
:103FF40000F04AFEBDE80840FFF7A1BF10B5A04B92
:104004005B6813F4E06FC3F302245BD101232246FF
:104014000321022000F038FE0123224619460A201B
:1040240000F032FE012310220921082000F02CFEAA
:10403400012310220A21032000F026FE0123224638
:104044000C210B2000F020FEFFF74EFD012803D1C8
:104054009F218C4801F0D8FC0123002219211E2045
:1040640000F012FE012300221B211A2000F00CFE96
:104074000123102221211D2000F006FE012310221D
:1040840022211B2000F000FE0123302223211C20CA
:1040940000F0FAFD0123302224211F2000F0F4FD5A
:1040A4000123302240F22111212000F0EDFD0123F3
:1040B40030224FF49071202000F0E6FDBDE810405E
:1040C400FFF75ABF012C40D12346002203210520CB
:1040D40000F0DAFD2346002221460A2000F0D4FD38
:1040E4002346102209210C2000F0CEFD2346102285
:1040F4000A21032000F0C8FD234630220B2120466C
:1041040000F0C2FD234630220C21092000F0BCFD42
:104114002146022000F0FCFE2146042000F0F8FEB7
:104124002146062000F0F4FE2146072000F0F0FEB0
:104134002146082000F0ECFE21460B2000F0E8FEAA
:1041440001210D2000F0E4FE86E7023C042C00F27D
:104154008D80DFE804F046443E0342000123002240
:1041640019460A2000F090FD0123002203210920B2
:1041740000F08AFD012310220921062000F084FDAD
:10418400012310220A21082000F07EFD01233022A1
:104194000B21072000F078FD012330220C210B2095
:1041A40000F072FD0121084600F0B2FE0121022058
:1041B40000F0AEFE0121032000F0AAFE012104203C
:1041C40000F0A6FE0121052000F0A2FE01210C2032
:1041D400B4E70220FFF74BFE3EE70420FAE7012094
:1041E400F8E7012310220921022000F04DFD0123EC
:1041F40010220A21032000F047FD012310220B2185
:10420400042000F041FD012310220C21052000F0C0
:104214003BFD012310220D21062000F035FD012372
:1042240010220E21072000F02FFD012310220F2160
:10423400082000F029FD102201231146092000F076
:1042440023FD0123102206210A2000F01DFD012375
:10425400002219460B2000F017FD03210123002240
:104264000C2000F011FD0121084667E70024013409
:104274000121204600F04CFE0D2CF8D1ECE600BFE5
:1042840000B00050526500207FB50B4B0B4C054627
:10429400002A18BF1C4601230E46CDE90103002362
:1042A400204601A9039300F02FF82046F2B2A9B2E8
:1042B40000F02EF904B070BD00000A500000084060
:1042C40001220B201146FFF7DFBF08B5FFF7F8FF07
:1042D40008BD000008B50A4B984214BF4023602370
:1042E4008B4206D901F01F034909138000EBC1106A
:1042F40008BD044840F27E3101F086FB0020F7E758
:1043040000000A509A65002037B50C46054618B9D6
:10431400DC21484801F078FB6368012B14D9112B88
:1043240012D0454A23F4001191420DD002F58012B7
:10433400934209D023F4801302F50012934203D070
:10434400DD213C4801F060FBA368022B03D9DE2188
:10435400384801F059FB284621880DF10602FFF781
:10436400B9FF034690B101226168BDF80600012936
:1043740002FA00F20CD1596A11435962996D114342
:104384009965DA64DA65DA639A645A6103B030BD18
:1043940011290CD1596A11435962996D11439965D8
:1043A400DA64DA65DA601A639A635A64EEE759B933
:1043B400596A11435962996D11439965DA64DA6552
:1043C400DA639A649A61E1E79A6161681A4CA142DE
:1043D40011D1D96A1143D9629A639A6401221749A7
:1043E40082408D420BBF196A596D0A430A430CBFC0
:1043F4001A625A65CAE7124CA14204D1D96A114320
:10440400D962DA6306E00F4CA14205D1D96A11439F
:10441400D9629A635A64E1E70B4CA14203D1196B48
:1044240011431963D8E7094CA142D7D1196B114341
:104434001963E6E79A6500200000111000000A5095
:104444000000211000003110000041100000511044
:1044540037B50D46044620B940F251110E4801F01B
:10446400D3FA20460DF10602A9B2FFF733FF80B15B
:104474000123BDF8061082698B401A438261426AA7
:104484001A434262826D1A438265C364C365C3637F
:10449400836403B030BD00BF9A65002037B50D4674
:1044A400044620B94FF4BE71184801F0ADFA29460C
:1044B40020460DF10602FFF70DFFE0B10123BDF820
:1044C400062041689340D140CC0716D4816AD1407C
:1044D400C90712D4416B01EA030433EA01010CD188
:1044E400016C8C4309D10369D340DB4303F001031E
:1044F400181E18BF012003B030BD016921FA02F271
:10450400D2074CBF426802681340F1E79A65002065
:1045140073B50E461446054620B94FF4D9711B48AD
:1045240001F072FA012C04D940F2B311174801F0DA
:104534006BFA314628460DF10602FFF7CBFED0B1E7
:104544000123BDF8061042688B40CA40D50718D431
:10455400826ACA40D20714D4416B01EA030233EAE7
:1045640001010ED1056C05EA0201AA4309D124B95F
:1045740043690B43436102B070BD83690B4383619C
:10458400F9E70CB18360F6E7C360F4E79A650020AD
:10459400F7B50DF1060206460F46FFF79BFE0446EB
:1045A40028B31C4BBDF806509E4222D0C36DEB408D
:1045B400D8071CD5236DEB40D90704D440F22D2134
:1045C400154801F021FA0123AB40E3653946304632
:1045D40001F0C2F93946304600F01CF9002806DB28
:1045E400012308300D4A834043F00043936203B033
:1045F400F0BDC36CEB40DA07F9D5C369EB40DB07C8
:1046040004D44FF40E71044801F0FEF90123AB40C9
:10461400E364DBE700000A509A65002000000C50B8
:104624000C4B70B59842044610D00B4B98420FD0F7
:104634004FF41B71094801F0E7F90025A9B220469F
:104644000135FFF7A5FFAE42F8D270BD4E26F4E760
:104654002426F2E700000A50000008409A65002072
:1046640037B50D46044620B94FF426712F4801F0A2
:10467400CBF90DF1060229462046FFF72BFE024630
:1046840000284ED04368BDF80610CB40DD070CD49B
:10469400836ACB40DC0708D40123406B8B4033EAA8
:1046A400000002D1106C834335D01369CB4013F062
:1046B40001001ED1D369CB4013F0010019D0936AD5
:1046C400CB4013F0010F536B23FA01F313D0D80737
:1046D40003D5136CCB40DB071FD4536BCB40DD07F2
:1046E4001DD4136C1248CB4013F0010F08BF4FF0D8
:1046F400FF3003B030BDDC0703D5136CCB40D807C3
:104704000FD4536BCB40DB070ED4136C0948CB405A
:1047140013F0010FEAE71120EBE70748E9E7074840
:10472400E7E74FF0FF30E4E70548E2E79A65002049
:104734000000211000005110000031100000111081
:104744000000411073B50DF106020646FFF7C2FDE5
:10475400044640B3154BBDF806509E4212D0C36DBB
:10476400EB40D8070BD5236DEB40D90704D440F2B6
:1047740051310F4801F048F90123AB40E3650020B3
:1047840002B070BDC36CEB40DA07F8D5C369EB40E7
:10479400DB0704D440F25B31054801F035F901230D
:1047A400AB40E364EBE70120EAE700BF00000A50F6
:1047B4009A650020022838B524D1134CE620E36A18
:1047C40043F00103E36200F0D7F8E36A9A06FCD5EC
:1047D4001E2000F0D1F8E36A9B06FCD5EFF31085A8
:1047E400012383F31088094C2378132B03D9D12197
:1047F400074801F009F923780133237085F3108801
:10480400002038BD0120FCE700000C50108400207B
:10481400CD650020064B984206D1A1F1180083B261
:10482400142B01D840B270474FF0FF30704700BFDF
:1048340000000A500346084631B1142B03D818333C
:1048440002480B8070470020704700BF00000A50E8
:10485400B9B1142815D80F280CD910380A4BC0B296
:104864001A68072300EB400083401340C3400B70D9
:1048740000207047072885BF0838044B044BC0B29A
:10488400EEE70120704700BF0C000C5008000C50EC
:1048940004000C50044B1A6942F002021A611A69AE
:1048A400002AFCDA704700BF00000C50024A13696A
:1048B40023F002031361704700000C50054B5B6B3F
:1048C400834238BF03F1FF33181A88422CBF0320F8
:1048D4000020704700000C50094BDA6A92060CD590
:1048E400084900204A6842F000424A605A6842F08F
:1048F40000425A6001225A6370470120704700BF8A
:1049040000000C500000044010B5FFF7B5F9FFF7A4
:10491400EBF8012828D0FFF715F8044618B1C22196
:10492400134801F071F801F03FF8FFF79CF8FFF726
:10493400DBF8012801D001F02FF8FFF7D5F8013892
:1049440018BF012001F02CF8032001F00DF800201D
:1049540000F0F2FF50B9074AD36823F00103D36093
:1049640000F0EEFF204610BD0024DCE70124F9E747
:10497400517A051200B00050034670B5B8B142F246
:1049840010754FF0E026AB4284BFA3F51C5442F2ED
:104994001073326998BF0024184688BF103CD307AF
:1049A40008D400F00BF82346002CECD101E000F011
:1049B40005F870BD00F048F8F5E7000013B5019064
:1049C400019B1C4C4BB323683BB3019BB3F1807F29
:1049D40004D94FF4CD71184801F016F8019B33B394
:1049E400164A136813F001030DD11548D0F8FC10D2
:1049F40041F08071C0F8FC105360136843F4003335
:104A040043F001031360019B22680C495343486837
:104A14004A68121A9A42FBD309E00020FEF706FD09
:104A2400084BB0FBF3F0019B2060002BCDD102B00A
:104A340010BD00BFACA40020517A0512001000E0A4
:104A440000ED00E040420F0037B501904FF0E02048
:104A54004FF47A724469019B6343B3FBF2F301930D
:104A64000023816982698A42FCD025BFA51A5B199B
:104A74005B185B18019938BF9B1A994201D803B09F
:104A840030BD1146EEE707B50190019B13B903B0A1
:104A94005DF804FB4FF47A70FFF76EFF019B013B56
:104AA4000193F2E78B10A3F14802F0B5D6B2042EBD
:104AB40049D8022E10D8254D0E2405EB820540F26C
:104AC400B222A1EB86039BB2A3F59073032B3AD8D1
:104AD400DFE803F0091A27201D4D9B003D2440F216
:104AE40021321D44EDE70E2C4FF0080620D14FF47F
:104AF4007C512F68031BB3407B400B4010447B4028
:104B0400001B2B6080B2F0BD0E2C4FF0000612D1BA
:104B14003F21EEE70E2C4FF010060ED14FF47C111E
:104B2400E7E70E2C4FF018060AD14FF07C51E0E76E
:104B34004FF4E061DDE70721DBE74FF4E021D8E73C
:104B44004FF0E061D5E70020DDE700BF58B000502A
:104B54000CEF0040002A31D02F2816DD3A282DDC36
:104B64000123174A2A388340106F11F0200F14BF15
:104B7400184398431067124A11F0100FD16E14BFF6
:104B84000B4321EA0303D36670472638032815D85C
:104B94000C4B11F0200F53F8202014BF42F01002E8
:104BA40022F0100243F8202053F82020C9064CBFFD
:104BB40042F0080222F0080243F82020704700BFA8
:104BC40000B00C505CB00C5038B14FF0A042936868
:104BD400064843F00403936070474FF080425368E3
:104BE400034843F008035360704700BF003000508F
:104BF400003000403A2870B5CDBF00260126054696
:104C0400A0F13C0504463046FFF7DEFF4EB9402CC8
:104C140007DD094A52F8243061F30E3342F8243098
:104C240070BD05F18043013B50F8232022F00F02B0
:104C3400114340F82310F3E758AF0C503B28C8BF8A
:104C44003C38430152B1064A0020134433F8102083
:104C54008A4202D001301028F8D17047014AF3E7A4
:104C6400D87A0020387A00203B28C8BF3C3800019D
:104C740008441AB1024B33F810007047014BFAE7AD
:104C8400D87A0020387A00202DE9F84315460446E6
:104C940018B94FF0FF30BDE8F8833A28CDBF00279C
:104CA40001270646A0F13C063846FFF78DFF8046F3
:104CB400002F00F0FE80A1F590739BB20B2B2ED831
:104CC4002046FFF7EFFE01463A462046FFF7B6FFBF
:104CD4000F288146DDDC3A4629462046FFF73AFF95
:104CE400002F40F0EF80402C40F3EC807F4AE80630
:104CF40052F824304FEA093923F4E04323F018032F
:104D040048BF43F00803A90648BF43F0100309F461
:104D1400E04949EA030342F824300020BBE7A1F547
:104D24009C739BB2072B26D84A109C3AA1EB4201F4
:104D340089B2B1F59C7F19D040F23913994240F001
:104D4400BF804FF0080E4FF47C5C6949A4F10E0358
:104D540051F8220003FA0EF3434003EA0C034340E4
:104D640041F8223004F5297189B2ADE74FF0000E05
:104D74004FF03F0CE9E7A1F5EC739AB2092A36D853
:104D84000522B3FBF2F3C3EB8332C3EB82020A4482
:104D940092B2A2F5EC7188B2032814D84FF03F0EFA
:104DA4005448C90050F823C0A4F10E028A4082EA94
:104DB4000C020EFA01F10A4082EA0C0240F82320A8
:104DC40004F25521D0E7B2F5EE7F79D13F214A486C
:104DD400DA00D0F86CC0A4F10E03934083EA0C030C
:104DE40001FA02F2134083EA0C03C366E8E76FF4A6
:104DF400017901EB090293B2052B27D80323B2FBF7
:104E0400F3F26FF4017EC2EB823302EB83030B44B3
:104E14009BB203EB0E0C1FFA8CFCBCF1020F4FD8B3
:104E2400DB00A3F581533549A4F10E0E083B0EFABD
:104E340003F3DFF8D8E051F822005EF82CC04340B9
:104E440003EA0C03434041F82230B9E76FF4F87CDD
:104E540001EB0C039AB2092A3FF636AFB1F5FC7F99
:104E640016D2590813F0010F254B4FF03F00254A85
:104E740018BF1A46C9008840D2F800C0A4F10E0336
:104E84008B4083EA0C03034083EA0C03136097E727
:104E940007D040F2F913994207D100213F201A4A62
:104EA400EAE710214FF47C10F9E708214FF47C5015
:104EB400F5E7A1F596739BB2072B3FF605AFFFE626
:104EC400002101E706F18046013E58F8263005F03E
:104ED400300509F00F0945EA090523F03F031D4396
:104EE40045F0400548F8265017E700BF58AF0C506E
:104EF40048B0005064B0005000B0005070B0005092
:104F04007CB0005078B0005080B000502C7A002063
:104F14003A2838B5044625DD402816DC0025A0F1E2
:104F24003C012846FFF750FE01F18043013B50F855
:104F340023102A4621F05F0141F00F0140F82310AD
:104F440000212046FFF706FE0AE0084A52F8203006
:104F540023F4E04323F00E0343F4E04342F820300B
:104F6400002038BD01460125DBE700BF58AF0C50D7
:104F74003A2870B50D4611460ADC4FF0A0429368FA
:104F840043F00403936080BB4FF0FF36304670BD9E
:104F94004FF08042536843F008035360B0F13C0380
:104FA400F2D040282EDD1E4B53F82020C2F3C0035C
:104FB400D4064FEA0313C2F3023648BF43F020037A
:104FC40012F0040205D0002243F04003402B22D00B
:104FD4001BD823B1302B08BF052318BFFF230B7048
:104FE4003146FFF741FE2880D0E7034601220D4CED
:104FF40003F18043013B54F8233003F00F0603F020
:105004007003E3E70022084CF2E7502B05D0702B25
:1050140008BF0223E1E70123E1E70323DFE700BF41
:1050240058AF0C5000300050003000403F000000EA
:10503400003F000000003F000000000000000000EE
:10504400000000000000000000000000000000005C
:105054000000000000000000B20021030103000072
:10506400000000003B024B02370200000000000079
:105074000000000000000000B3002203020300004F
:10508400000000003C024B02380200000000000057
:105094000000000000000000B4002303030300002C
:1050A400000000003D024B023A0200000000000034
:1050B4000000000000000000B50024030403000009
:1050C400000000003E024B02390200000000000014
:1050D40000000000000000000000000000000000CC
:1050E40000000000000000000000000000000000BC
:1050F4000000000000000000F200040000000000B6
:1051040000000B0000000000000000000000000090
:105114000000000000000000F3000900000000008F
:105124000000030000000000000000000000000078
:105134000000000000000000F4000A00000000006D
:1051440000000A0000000000000000000000000051
:105154000000000000000000F5000B00000000004B
:1051640000000B0000000000000000000000000030
:105174000000000000000000F6000C000000000029
:105184000000030000000000000000000000000018
:105194000000000000000000F700030000000D0004
:1051A40009000000000000000000000000000000F2
:1051B4000000000000000000F800020000000E00E3
:1051C4000B000000000000000000000000000000D0
:1051D4000000000000000000F900010000000F00C2
:1051E4000A000900000000000000000000000000A8
:1051F4000000000000000000FA000D000000100094
:1052040003000C000000000000000000000000008B
:105214000000000000000000FB000E00000006007B
:105224000100010000000000000000000000000078
:105234000000000000000000FC000F00000001005E
:105244000C000C0000000000000000000000000042
:105254000000000000000000FD001000000003003A
:105264000000090000000000000000000000000031
:105274000000000000000000FE0005000600000021
:10528400000000000000000000000000000000001A
:105294000000000000000000520054010000000063
:1052A400B202630200006A01000000000000000076
:1052B4000000000000000000530000000000000097
:1052C400B3026402000000000000000000000000BF
:1052D4000000000000000000540055010000C60159
:1052E400B40265029A016B0100003B020000270230
:1052F400000000000000000055004E010000C8013D
:10530400B502660299015F0100003C020000280218
:10531400000000000000000056004F010000C7011B
:10532400B602670297015E0100003D0200002902F7
:105334000000000000000000570050010000C401FC
:10534400B70268029501680100003E0200002A02CB
:105354000000000000000000580051010000C501D9
:10536400B80269029401690100003F0200002B02A7
:105374000000000000000000590052010000D401A8
:10538400B9026A02920160010000400200002C028E
:1053940000000000000000005A0053010000D50185
:1053A400BA026B0291016101000041023A0200005D
:1053B40000000000000000005B000000000000008E
:1053C400BB026C020000000000004202390200002F
:1053D40000000000000000005C000000000000006D
:1053E400BC026D020000000000000000000000008C
:1053F40000000000000000005D000000000000004C
:10540400BD026E02000000000000D3013702210239
:1054140000000000000000005E001B00B701000057
:10542400BE026F02000000000000000038022202E9
:1054340000000000000000005F002200B80100002E
:10544400BF02700200000000000000000000230200
:10545400000000000000000060002300B201000012
:10546400C0027102000000000000000000002402DD
:10547400000000000000000061002100B4010000F1
:10548400C1027202000000000000000000002502BA
:10549400000000000000000062001900B5010000D7
:1054A400C202730200000000000000000000260297
:1054B400000000000000000063002400B6010000AA
:1054C400C30274020000000000000000000000009D
:1054D4000000000000000000640000001A02000048
:1054E400C40275020000000000000000000000007B
:1054F4000000000000000000650000001902000028
:10550400C502760200000000000000000000000058
:105514000000000000000000660000000000000021
:10552400C60277020000000000004B0200000000E9
:105534000000000000000000670000000000000000
:10554400C702780200000000000000000000000014
:105554000000000000000000680000000000D4010A
:10556400C8027902000000000000000000000000F2
:105574000000000000000000690000000000D501E8
:10558400C9027A02000000000000000000000000D0
:1055940000000000000000006A0000004901C6018C
:1055A400CA027B02000000000000000000000000AE
:1055B40000000000000000006B0000004801C8016A
:1055C400CB027C020000000000000000000000008C
:1055D40000000000000000006C000000000000005B
:1055E400CC027D020000000000000000000000006A
:1055F40000000000000000006D000000000000003A
:10560400CD027E0200000000000000000000000047
:1056140000000000000000006E0000004601C70109
:10562400CE027F0200000000000000000000000025
:1056340000000000000000006F0000004701C401EA
:10564400CF02800200000000000000000000000003
:105654000000000000000000700000000000C50110
:10566400D0028102000000000000000000000000E1
:1056740000000000000000007100000000000000B5
:10568400D10282020000000000004302000000007A
:105694000000000000000000720000000000000094
:1056A400D20283020000000000000000000000009D
:1056B4000000000000000000730000000000000073
:1056C400D30284020000000000000000000000007B
:1056D4000000000000000000740000000000000052
:1056E400D402850200000000000000000000000059
:1056F4000000000000000000750000000000000031
:10570400D502860200000000000000000000000036
:10571400000000000000000076000000000000000F
:10572400D602870200000000000000000000000014
:105734000000000000000000770000004D010000A0
:10574400D702880200006201000044020000000049
:105754000000000000000000780000004C01000080
:10576400D8028902000000000000000000000000D0
:105774000000000000000000790000004A01000061
:10578400D9028A02900163010000450200002F0241
:1057940000000000000000007A0000004B0100003F
:1057A400DA028B028F01640100004602000030021D
:1057B40000000000000000007B000000000000006A
:1057C400DB028C02930165010000470200003102F4
:1057D40000000000000000007C0000000000000049
:1057E400DC028D02960166010000480200003202CC
:1057F40000000000000000007D0000000000000028
:10580400DD028E02980167010000490200003302A4
:1058140000000000000000007E0000000000000006
:10582400DE028F020000000000004A020000340281
:105834000000000000000000032AF0B504D803466D
:105844001A44934227D1F0BD8307F8D14FF00133B6
:10585400CCB25C43154603460F2D03F1100311D857
:1058640002F00F031E4622F00F05054403EB050C5E
:10587400032EACEB06070BD803F00C032B4402F009
:105884000302DDE743E9044443E90244103DE3E74E
:105894003C60043EECE703F8011BD2E7830730B514
:1058A40046D08418844604E003F8011B9D0704D005
:1058B4009C46A4456346F7D130BD013A0244A2EBAD
:1058C4000C02032A29D9CCB20F2A04EB042404EBDA
:1058D40004442FD9A2F1100C03F110052CF00F0C85
:1058E400AC44C3E90044C3E9024410336345F8D12E
:1058F40012F00C0F02F00F0E18D02EF0030CAEF1C4
:1059040004051A469C4442F8044B6245FBD125F039
:10591400030404330EF003022344002ACCD0C9B29A
:105924001A4403F8011B9342FBD130BD7246F4E7DD
:105934000346C6E79646E0E75FF800F01DE9031268
:105944005FF800F011AD02125FF800F045F70312A2
:105954005FF800F09D2804125FF800F0955B0312D5
:105964005FF800F0C92303125FF800F0C1A202122D
:105974005FF800F03D1F03125FF800F05524031296
:105984005FF800F0392A04125FF800F0DD240312F6
:105994005FF800F08DF403125FF800F04D25031258
:1059A4005FF800F08D8F02125FF800F0598F021239
:1059B4005FF800F0114803125FF800F01D25031290
:1059C4005FF800F0E92303125FF800F039240312B2
:1059D4005FF800F0CDF503125FF800F0910D0412AA
:1059E4005FF800F04D1F03125FF800F02D2A041237
:1059F4005FF800F0F7EA03125FF800F0892403125D
:105A04005FF800F021EE03125FF800F095E903124D
:105A18000348044B834202D0034B03B11847704735
:105A280024A0002024A0002000000000064B074905
:105A3800C91A891048BF0131491003D0044B0BB172
:105A480001481847704700BF24A0002024A0002068
:105A58000000000010B5064C237843B9FFF7D8FFC3
:105A6800044B13B10448AFF300800123237010BD29
:105A780028A000200000000080A1061208B5054BF0
:105A88001BB105490548AFF30080BDE80840FFF7A2
:105A9800CDBF00BF000000002CA0002080A106128E
:105AA80007B52C2918BF0902009308BF05491346FA
:105AB80018BF41F0007104220BF0B0FA03B05DF892
:105AC80004FB00BF002C003230B50025044685B029
