:020000041202E6
:100000000020002005A7021285A702121D9C0020D7
:100010005F9C00204FA702124FA702124FA70212A7
:100020000000000000000000000000004FA70212C6
:100030004FA7021200000000419B002021C00412C3
:100040004FA702124FA70212CD240412DF2404127C
:10005000F124041203250412152504122725041285
:10006000392504124B2504124FA7021285A0021253
:100070004FA702124FA702124FA702124FA7021258
:100080004FA702124FA702124FA702124FA7021248
:10009000213104124FA702124FA702124FA70212DA
:1000A0004FA702124FA702124FA702124FA7021228
:1000B0004FA702124FA702124FA702124FA7021218
:1000C0004FA702124FA702124FA702124FA7021208
:1000D0004FA702124FA702124FA702124FA70212F8
:1000E0004FA702124FA702124FA702124FA70212E8
:1000F0004FA702124FA70212F53C04124FA702129B
:100100004FA70212615404123D2404124F2404121A
:100110006124041273240412852404129724041207
:10012000A9240412BB240412E91E0412F537041298
:10013000A1490412854E0412E1B50412BD7E0412D9
:100140004FA702124FA702124FA70212A5BF041217
:100150004FA702124FA702124FA702124FA7021277
:10016000DD3C04124FA702124FA702124FA7021242
:100170008B4E04124D580412914E04124FA70212D6
:100180004FA702124FA702124FA702124FA7021247
:10019000AD3204124FA702124FA702124FA702124C
:1001A0004FA70212F9B504124FA702124FA702126D
:1001B0004FA702124FA702124FA702124FA7021217
:1001C0004FA702124FA702124FA702120000000011
:1001D000000000000000000000000000000000001F
:1001E000000000000000000000000000000000000F
:1001F00000000000000000000000000000000000FF
:0402000000000000FA
:1002040004F0BCBD024A936E60F31D5393667047BD
:1002140000A00C5038B550B1184C6368DBB2072B02
:1002240001D1002038BD6368DBB20F2BF9D0134C29
:100234006368DBB2072BF4D06368DBB20F2BF0D01A
:10024400102818D80E4BC340DB0714D500294FF0F3
:1002540021040CBF202101210A4D8440EB6D814013
:1002640023EA04030B43EB65002ADAD041F2883019
:1002740005F042FBD5E70120D4E700BF00B00050F1
:100284000101010000A00C5008B5EFF31083012513
:1002940085F31088022005F04DFA284604F06CFA24
:1002A4002A4600210820FFF7B5FF4FF4FA5005F065
:1002B40045FB002003F0DAFF044628B905F0AAFA4A
:1002C4002946204604F0B0F845F25002094C0A4B86
:1002D40063670A4B1A6323685B0706D523680848DB
:1002E40023F00403236005F007FB236843F00403B1
:1002F4002360FEE700A00C5015C0500A00B00C505B
:10030400A0860100044B1A7822B118B1DB7803707F
:100314000020704701207047E1C70020044B1A7881
:1003240022B118B15B7B0370002070470120704735
:10033400E1C7002003280ED8084A52F8203029B11A
:1003440043F0060342F820300020704723F00603F0
:1003540043F00403F6E70120704700BF5CB00C5083
:1003640003289DBF034B53F82000C0F340204FF0F7
:10037400FF3070475CB00C5003280CD8074B53F87F
:100384002020920707D553F8202061F3000243F898
:100394002020002070470120704700BF5CB00C5043
:1003A40059B1032809D8064B53F82030002013F024
:1003B400020318BF01230B7070470120704700BF70
:1003C4005CB00C50F8B50746002003F04FFF002145
:1003D4000446084604F028F803F07AFF064603F0C2
:1003E4007AFF05463846FFF70DFF002005F084FA32
:1003F400282005F081FA03F0D1FF03F0D7FF30463F
:1004040003F0C4FF284603F0C5FF2146002004F092
:100414000BF8BDE8F840002005F06EBA2DE9F04F66
:1004240089B018220446002102A806F0F7F9674BA8
:100434009A6E0023C2F3095200920193002C00F03B
:10044400A980634904F5EA33BF338B4203D9012001
:1004540009B0BDE8F08F002C00F39E806FF0160504
:100464006FF02F0B6FF0480A6FF064096FF081088A
:100474006FF0A00E6FF4927C6FF0E3076FF4987046
:10048400544E5549554B6442ADF81C1042F210715C
:10049400ADF81E30B4FBF1F3ADF81A00581EADF8F8
:1004A4001860C6B20A2E01FB1344ADF80850ADF82B
:1004B4000AB0ADF80CA0ADF80E90ADF81080ADF810
:1004C40012E0ADF814C0ADF8167078D808AD05EB9D
:1004D400400005EB430330F9180C33F9183C1B1AA0
:1004E400634393FBF1F30344134440F2FE3293421B
:1004F4000093ACD804226946032006F011FA0028C0
:10050400A5D0042203200DEB020106F061FA0028B5
:100514009DD0DDE900329A4299D103F0F9FB0546FA
:10052400002003F0A3FE064603F0D2FE804603F04B
:10053400D2FE264A0746546F14F0010406D1536FC5
:100544003C2043F00103536705F0D6F90021084627
:1005540003F06AFF0098FFF755FE282005F0CCF958
:1005640003F01CFF03F022FF404603F00FFF384660
:1005740003F010FF0020314603F056FF002005F081
:10058400BBF924B9114A536F23F00103536728467A
:1005940003F0C2FB00205BE716254FF02B0B4FF056
:1005A4003F0A4FF052094FF064084FF0750E4FF0B8
:1005B400860C9527A526B320C121CE2364E714FB1E
:1005C40005F494FBF1F4A3188FE700BF00A00C50CE
:1005D4007EA90300F6FEFFFFA4FEFFFF76FEFFFFE9
:1005E4002DE9F341364B9B6EC3F30953B3F5E57F15
:1005F400009353D04FF4E57304226946032000931B
:1006040006F08EF9002857D0042203200DEB0201D6
:1006140006F0DEF900284FD0DDE900329A424BD1D2
:1006240003F076FB0546002003F020FE064603F0A7
:100634004FFE804603F04FFE214A0746546F14F0E4
:10064400010406D1536F3C2043F00103536705F0C6
:1006540053F90021084603F0E7FE0098FFF7D2FDA6
:10066400282005F049F903F099FE03F09FFE404667
:1006740003F08CFE384603F08DFE0020314603F073
:10068400D3FE002005F038F924B90D4A536F23F046
:1006940001035367284603F03FFB0BE004220320C9
:1006A4000DEB020106F094F90028A3D0DDE9003235
:1006B4009A429FD1002000E0012002B0BDE8F08101
:1006C40000A00C5070B590F8263004460E4673B165
:1006D40003F01EFB0546204602F0EEFB31462046A1
:1006E40002F0A3FB2846BDE8704003F015BB70BDC3
:1006F40003F0A0B903F09EB910B50C4603F09AF9C3
:1007040020B12146BDE81040FFF7DCBF10BD08B59D
:1007140003F090F900B1406808BD000008B503F08B
:1007240059F90A4B1B787BB100280DDB084B03EB0E
:10073400401006F0C5F838B1BDE8084040F2012287
:100744000449054806F004B908BD00BFF0DD0020E7
:10075400DCFF0020A76B0020F4A9002010B504469C
:1007640003F04EF908B103F064F9044B186803F080
:10077400D3FA2046BDE81040FFF7D0BFD8FF0020D1
:1007840008B503F057F918B1BDE8084002F0AABA59
:1007940008BD08B503F04EF938B190F823302BB9F1
:1007A40090F824304FF48050984008BD4FF4003046
:1007B400FBE70000034B1B7843FA00F000F0010054
:1007C400704700BFD4FF002010B503F003F90F4BAE
:1007D40004461B78C3B1002816DBC0B2FFF7EAFF5A
:1007E40090B14FF0FF3006F0ABF80146084800EB3B
:1007F400441006F081F838B1BDE810404FF4F772A8
:100804000449054806F0A4B810BD00BFF0DD00207F
:10081400DCFF0020B76B0020F4A9002010B50446CB
:10082400FFF7D2FF03F074FA054B1860204603F07B
:10083400E7F818B1BDE8104003F0FAB810BD00BFE6
:10084400D8FF00202DE9F84F07468A46164603F0E4
:10085400F1F8044600286FD0002E47D090F82330DA
:10086400002B69D1C36A3D46002B5FD1324639461D
:10087400504606F079F839E02069FFF7CFFF03F01E
:1008840047FAE36A074601209847594623688029B6
:10089400A8BF8021BBF1030FC3F8848004DD4AEABA
:1008A40005039B072A4624D008460AF1FF332A1879
:1008B400954236D1226882441368002023F0010354
:1008C40013602368ABEB010BC3F8849022681368B0
:1008D40043F001031360E36A9847384603F01CFAB7
:1008E4002069FFF73BFFBBF1000FC5DC3046BDE8D4
:1008F400F88FAAF1040055F8043B40F8043F531B59
:100904000B44032BF7DC6FF003008B08013B4343DC
:10091400043208180AF1040A1844D51AAAEB030A87
:10092400C3E715F801CB03F801CFC1E7B3464FF68F
:10093400FF784FF0FF09D6E70026D7E72DE9F04FFF
:1009440085B081460F46934603F074F8044620B9F7
:100954000026304605B0BDE8F08FBBF1000FF7D09C
:1009640090F82330002BF3D187EA0903DA0001D48D
:10097400FB0006D47B1E5B447B40B3F5801FC0F0B4
:100984008A80584606F018F802900028E0D03946CC
:100994005A4605F0E9FF029F25690021A945204632
:1009A40034BF4D46A9EB0505FFF78CFE94F824608F
:1009B400002E73D015F0010670D02069FFF72EFFCA
:1009C4003A4629460123204602F0CDF82069FFF774
:1009D400C5FE0126013501370BF1FF38B8F1000FD0
:1009E4002ADD4FF4807294F824309A4002F1FF3AE1
:1009F4000AEA050ABAF1000F019267DDA2EB0A0ABE
:100A0400C245A8BFC2462069002B49D01AF0010F85
:100A140046D0FFF703FF3A4629462AF00103204651
:100A240001F0BCFF00233A182918204602F09BF875
:100A34002069FFF793FE564401212046FFF742FE4A
:100A4400BBF1000F1FDD09F01F035B44BFF34F8FA1
:100A54004A4648494B44C1F85C222032981A00287F
:100A6400F9DCBFF34F8FBFF36F8FBFF34F8FC1F824
:100A7400589209F12009A3EB0902002AF7DCBFF31D
:100A84004F8FBFF36F8F029B002B3FF462AF18466A
:100A940005F042FF5DE7002302937DE7D8469DE71A
:100AA400FFF7BCFE53463A462946204601F076FF3E
:100AB40003902069FFF752FE039B9A4501D000265C
:100AC400BAE755445744A8EB0A085644AA467B1B88
:100AD4000393039B03EB0A07019B434529DD751B25
:100AE400B8F1000F05EB0A06A6DD94F8243020695E
:100AF40083B318F0010F2DD0FFF790FE51463A460C
:100B040028F00103204601F049FF05462069FFF75C
:100B140025FEAA4420693D44FFF780FE00232A46AF
:100B24005146204602F01FF82069FFF717FE46449D
:100B340082E72069FFF772FE5146019B3A46204640
:100B440001F02CFF2069FFF709FE019B9A44A8EBF2
:100B54000308BEE7FFF762FE43463A465146204685
:100B640001F01CFF05462069FFF7F8FDA845A6D152
:100B7400DDE700BF00ED00E02DE9F84F06460F4623
:100B840002F058FF0546002800F0C180002F00F055
:100B9400BE8090F82330002B40F0BB804069B846FB
:100BA400B84238D32B693BD12869FFF737FE0021BF
:100BB4002846FFF787FD284602F040F80121044645
:100BC4002846FFF77FFD2869FFF7C8FD002F1DDDCC
:100BD40006F01F034344BFF34F8F32464E4933445C
:100BE400C1F85C222032981A0028F9DCBFF34F8F39
:100BF400BFF36F8FBFF34F8FC1F8586220369A1B33
:100C0400002AF9DCBFF34F8FBFF36F8F201E18BF8C
:100C14000120BDE8F88F0028FBD007468046C3E7D3
:100C24004FF4805A9E4234BFB146A6EB030995F8AF
:100C340024300AFA03F3591E11EA090F0BD0F022EB
:100C44003649374805F084FE4FF0FF340121284629
:100C5400FFF738FDBAE7394001D0F622F0E77C1EF1
:100C64005A421C44284609EA020914404FF4803BC6
:100C7400FFF728FD95F824300BFA03F2511E11EA10
:100C8400090F07D1A24205D84FF4803202FA03F1CA
:100C94008C420CD20AFA03F2A24203D8013A12EAB5
:100CA400090F2FD0003C18BF01246442CEE7286905
:100CB400FFF7B4FD4946284601F099FF2869FFF77C
:100CC4004DFD4FF4803295F8243002FA03F1641A92
:100CD4008944DBE72869FFF7A1FD4946284601F06E
:100CE4005FFF2869FFF73AFD95F824300AFA03F20A
:100CF4009144A41A0BFA03F2511E11EA090F01D10F
:100D04009442B7D20AFA03F39C42E3D2CAE7012021
:100D14007FE700207DE700BF00ED00E0966B002038
:100D240000AA0020F7B5154D2C781CBB144B6F4658
:100D34009A8818689B79ADF804208DF806300090E5
:100D440002F046FF01220F4B0F4E28701A70E2B2D8
:100D54001046FFF72FFD40B131328DF805200023F6
:100D640001223946304605F007FE0134052C06F110
:100D74002006ECD1287803B0F0BD00BFD4FF0020DA
:100D840002AA0020F0DD0020DCFF002008B5FFF7F8
:100D9400C9FF002008BD72745F6E6F725F65726177
:100DA40073655F726F6D0072745F666C6173685F08
:100DB400756E6C6F636B0072745F666C6173685FF1
:100DC4006C6F636B00000000F0B505460138C0B2DB
:100DD400FD2808D800240B4F57F8040B067826B9D1
:100DE4000134062CF8D100200BE0AE4205D1467840
:100DF400964202D186788E4201D00830EEE703B1E4
:100E04001C70F0BD586C002007B50DF10703FFF707
:100E1400DBFF064B40B14FF405719DF8072001FB41
:100E2400023003B05DF804FB1846FAE7706E002048
:100E340008B50023FFF7C8FF08B1406808BD4FF4A8
:100E44000020FBE708B50023FFF7BEFF10B1C07810
:100E540000F0010008BD0000B86D0020206D0020E6
:100E6400E86C0020C86C0020986C0020706C002096
:100E7400C225390000000002C225370000008000AE
:100E8400C2201901000000022570180000000001B2
:100E940000000000000000002041190000000002D2
:100EA4002040190000000002204319000000000245
:100EB400852019010000000285201A0100000004A9
:100EC4000000000000000000C860190000000002DB
:100ED4000B40190000000002C84019000000000285
:100EE4000000000000000000EF6019000000000294
:100EF400EF70190100000002E54219000000000231
:100F0400EF401900000000026849190000000002C7
:100F14005E40190000000002000000000000000014
:100F24008560160100004000856017010000800004
:100F340085601801000000018565180100000001AA
:100F4400856318010000000185201701000080005E
:100F540085201801000000012570160000004000E3
:100F6400EF60180000000001EF40180000000001CD
:100F74000B601800000000015E5018000000000122
:100F8400A128180000000001C84318010000000156
:100F9400C840180000000001C8401700000080008D
:100FA4002040170100008000CD60180000000001FF
:100FB4000000000000000000856015010000200012
:100FC4008560140100001000856013000000080013
:100FD400C860140000001000C86015000000200064
:100FE400C860160000004000C860170000008000C0
:100FF400C8601800000000010B40170000008000CA
:10100400F8421800000000015E7017000000800024
:101014005E40180000000001EF6016000000400070
:1010240020401801000000012041180000000001C8
:101034002050180000000001EB60130000001000B5
:10104400EB601400000010001C40180000000001B8
:10105400684017000000800068401800000000018C
:101064000B40180000000001000000000000000018
:10107400008560150000030000000001001000005E
:101084000600000000000000010400000000000051
:101094000001050001000000000001010101000041
:1010A4000000000100000000000000000003000137
:1010B4000000000201010B00010800000201013BD5
:1010C40000020800000201016B0003080000020195
:1010D40001BB0002000002020201EB000304000352
:1010E4000203019F00010000000000010000000055
:1010F40000000000000000000000000000000000EC
:1011040000000000000000000000000000000000DB
:1011140000000000000000000000000000000000CB
:1011240000009900000000000000016600000000BB
:101134000000000135000100000000000150000023
:101144000000000000010201010000000201013260
:101154000103000000020101000000000000000083
:1011640000000000000000000000810000000000FA
:1011740002010120000000000002010152000000F1
:101184000000020101D8000000000002010160001B
:10119400000000000000010000000000000000004A
:1011A400000000000000000000000000000000003B
:1011B400000000000000000000000000000000002B
:1011C400000000000000000000000000000000001B
:1011D400000000000000000000000000000000000B
:1011E40000000000000000000000000000000000FB
:1011F40000000000000000000000000000000000EB
:1012040000000000000000000000000000000000DA
:1012140000000000000000000000000000000000CA
:1012240000000000000000000000000000000000BA
:101234000000000000000000004B00010800000254
:1012440001014800010800000201014201010000FF
:1012540000020101440000000000020101B9000085
:10126400000000000001AB0000000000000001EDE0
:1012740000070700070207015A00010800000201E5
:10128400010000000085601600000300000000015A
:10129400001000000600000000000000010400002F
:1012A4000000000000010500010000000000010131
:1012B4000101000000000001000000000000000027
:1012C400000300010000000201010B0001080000FE
:1012D4000201013B00020800000201016B00030847
:1012E4000000020101BB0002000002020201EB0047
:1012F400030400030203019F000100000000000139
:1013040000000000000000000000000000000000D9
:1013140000000000000000000000000000000000C9
:1013240000000000000000000000000000000000B9
:1013340000000000000099000000000000000166A9
:101344000000000000000001350001000000000062
:101354000150000000000000000102010100000033
:10136400020101320103000000020101000000003B
:1013740000000000000000000000000000008100E8
:101384000000000002010120000000000002010131
:10139400520000000000020101D800000000000219
:1013A40001016000000000000000010000000000D6
:1013B4000000000000000000000000000000000029
:1013C4000000000000000000000000000000000019
:1013D4000000000000000000000000000000000009
:1013E40000000000000000000000000000000000F9
:1013F40000000000000000000000000000000000E9
:1014040000000000000000000000000000000000D8
:101414000000000000000031010100000000000194
:1014240000000000000000000000000000000000B8
:1014340000000000000000000000000000000000A8
:10144400000000000000000000000000004B00014C
:1014540008000002010148000108000002010142E5
:10146400010100000002010144000000000002012B
:1014740001B90000000000000001AB000000000002
:10148400000001ED00070700070207015A000108E8
:10149400000002010100000000EF601900000300D9
:1014A4000000000100100000060000000000000021
:1014B400010400000000000000010500010000001C
:1014C4000000010101010000000000010000000013
:1014D40000000000000300010000000201010B00F5
:1014E400010800000201013B0002080000020101A2
:1014F4006B0003080000020101BB000200000202AD
:101504000201EB00030400030203019F0001000039
:1015140000000001000000000000000000000000C6
:1015240000000000000000000000000000000000B7
:1015340000000000000000000000000000000000A7
:1015440000000000000000000000990000000000FE
:1015540000000166000000000000000135000100E9
:101564000000000001500000000000000001020122
:101574000100000002010132010300000002010128
:10158400C80001000000000001C5010100000000C6
:1015940000018100000000000201012000000000A1
:1015A40000020101520000000000020101D8000005
:1015B40000000002010160000000000000000115AD
:1015C4000001000000000001110101000000000002
:1015D40001B70000000000000001E9000000000065
:1015E4000000011300010000000301010C000108C8
:1015F40000000301016C0003080000030101EC007A
:1016040003040003030301120101000000030101AC
:101614003401030000000301012100000000000365
:101624000101DC00000000000301010000000000D3
:1016340000000000000000000000000000000000A6
:101644000000000000000000000000000000000096
:101654000000000000000000000000000000000086
:10166400004B0001080000030101480001080000CC
:1016740003010142010100000003010144000000D4
:101684000000030101B90000000000000001AB00EC
:1016940000000000000001ED000707000703070138
:1016A4005A000108000002010100000000C860198E
:1016B400000003000000000100100000060000000C
:1016C400000000000104000000000000000105000B
:1016D4000100000000000101010100000000000100
:1016E40000000000000000000003000100000002F0
:1016F40001010B00010800000201013B0002080087
:10170400000201016B0003080000020101BB00029A
:10171400000002020201EB00030400030203019F24
:1017240000010000000000010000000000000000B3
:1017340000000000000000000000000000000000A5
:101744000000000000000000000000000000000095
:1017540000000000000000000000000000009900EC
:10176400000000000000016600000000000000010D
:1017740035000100000000000150000000000000DE
:101784000001020101000000020101320103000016
:1017940000020101C80001000000000001C50101B0
:1017A400000000000001810000000000020101208F
:1017B40000000000000201015200000000000201CC
:1017C40001D80000000000020101600000000000D8
:1017D40000000115000100000000000111010100DA
:1017E4000000000001B70000000000000001E90053
:1017F40000000000000001030001000000030101DB
:101804000B00010800000301016B00030800000342
:101814000101EB00030400030303010201010000C2
:101824000003010132010300000003010120000054
:10183400000000030101D8000000000003010100C2
:101844000000000000000000000000000000000094
:101854000000000000000000000000000000000084
:101864000000000000000000000000000000000074
:1018740000000000004B00010800000301014800C3
:1018840001080000030101420101000000030101FD
:10189400440000000000030101B900000000000042
:1018A4000001AB0000000000000001000000000087
:1018B400000000005A0001080000020101000000BD
:1018C4000020411900000300000000010010000086
:1018D40006000000000000000104000000000000F9
:1018E40000010500010000000000010101010000E9
:1018F40000000001000000000000000000030001DF
:101904000000000201010B00010800000201013B7C
:1019140000020800000201016B000308000002013C
:1019240001BB0002000002020201EB0003040003F9
:101934000203019F000100000000000100000000FC
:101944000000000000000000000000000000000093
:101954000000000000000000000000000000000083
:101964000000000000000000000000000000000073
:101974000000990000000000000001660000000063
:1019840000000001350001000000000001500000CB
:101994000000000000010201010000000201013208
:1019A4000103000000020101C80001000000000062
:1019B40001C50101000000000001810000000000D9
:1019C4000201012000000000000201015200000099
:1019D4000000020101D800000000000201016000C3
:1019E40000000000000001150001000000000001DB
:1019F400110101000000000001B700000000000018
:101A04000001E900000000000000011300010000D3
:101A1400000301010C00010800000301016C000334
:101A2400080000030101EC00030400030303011296
:101A3400010100000003010134010300000003015F
:101A440001210000000000030101DC00000000008F
:101A54000301013101010000000000010000000049
:101A64000000000000000000000000000000000072
:101A74000000000000000000000000000000000062
:101A84000000000000000000004B000108000003FB
:101A940001014800010800000301014201010000A6
:101AA40000030101440000000000030101B900002B
:101AB400000000000001AB00000000000000010075
:101AC40000000000000000005A00010800000201AC
:101AD4000100000000C225390000003C6000000045
:101AE40000100000060000000000000001040000D7
:101AF40000000000000105000100000000000101D9
:101B040001010000000000010000000000000000CE
:101B1400000300010000000201010B0001080000A5
:101B24000201013B00020800000201016B000308EE
:101B34000000020101BB0002000002020201EB00EE
:101B4400030400030203019F0001000000000001E0
:101B54000000000000000000000000000000000081
:101B64000000000000000000000000000000000071
:101B74000000000000000000000000000000000061
:101B84000000000000009900000000000000016651
:101B94000000000000000001000000000000000040
:101BA400000000000000000000000201010000002D
:101BB400020101320103000000020101C80001001A
:101BC4000000000001C501010000000000018100C7
:101BD40000000000020101200000000000020101D9
:101BE400520000000000020101D8000000000002C1
:101BF4000101600000000000000001150001000068
:101C040000000001110101000000000001B7000004
:101C1400000000000001E9000000000000000103D2
:101C240000010000000301010B0001080000030192
:101C3400016B0003080000030101EB00030400032F
:101C4400030301020101000000030101320103004A
:101C54000000030101200000000000030101D8007E
:101C6400000000000301010000000000000000006B
:101C74000000000000000000000000000000000060
:101C84000000000000000000000000000000000050
:101C9400000000000000000000000000004B0001F4
:101CA4000800000201010000000000000000000024
:101CB4000000000000000000000000000000000020
:101CC40000B90000000000000001AB0000000000AB
:101CD4000000010000000000000000005A0001089C
:101CE400000002010100000010B5E0B1D9B10023E9
:101CF4000122436080F822200C6804604A6880F85E
:101D040020208A680261CA6812054261FF22C4F871
:101D140084204FF0502401688C6701680A620168CE
:101D240018464A6410BD0120FCE738B1026800205F
:101D3400136C23F0FF0319431164704701207047AB
:101D440070B5C8B105689DF918609DF91C00AC6CAC
:101D540040EAC60040EAC3239DF910006FF314045F
:101D640043EA00239DF9140043EA801343EA423214
:101D740042EA81412143A96470BD40B10268002058
:101D8400136C23F47F4343EA01211164704701205B
:101D9400704770B5C8B105689DF918609DF91C00BD
:101DA4002C6D40EAC60040EAC3239DF910006FF38E
:101DB400140443EA00239DF9140043EA801343EA20
:101DC400423242EA81412143296570BD18B103685A
:101DD4000020596070470120704730B10368013911
:101DE400C1F313010020596270470120704730B1DC
:101DF40003680139C1F3130100209963704701207E
:101E0400704708B103681962704718B1036818690C
:101E140000F00100704720B10268536943F00103E8
:101E24005361704738B50D460446A8B10368DA61BA
:101E3400C36A0BB10120984723689D612046FFF7D0
:101E4400E4FF0028FAD02046FFF7E5FFE36A0BB170
:101E540000209847002038BD0120FCE718B1026833
:101E6400536919435161704718B103681869C0F385
:101E7400C000704728B103685868C04300F00100EF
:101E840070470120704708B103685868704720B153
:101E94000268536D61F38E235365704708B103687C
:101EA400D960704710B10368D868C0B2704770B584
:101EB400E8B105689DF91C609DF92000AC6A40EA10
:101EC400C6009DF910606FF3150440EAC6209DF921
:101ED400146040EA06209DF9186040EA861040EA42
:101EE400433343EA824242EA41512143A96270BD2D
:101EF40070B5E8B105689DF91C609DF92000EC6B94
:101F040040EAC6009DF910606FF3150440EAC6204C
:101F14009DF9146040EA06209DF9186040EA861095
:101F240040EA433343EA824242EA41512143E963AE
:101F340070BD50B103681A6821B142F0010200205B
:101F44001A60704722F00102F9E70120704750B18E
:101F540003681A6821B142F4001200201A60704725
:101F640022F40012F9E70120704750B103689A681F
:101F740021B142F0100200209A60704722F0100252
:101F8400F9E70120704750B103681A6821B142F49F
:101F9400803200201A60704722F48032F9E7012071
:101FA400704750B103681A6821B142F480220020BE
:101FB4001A60704722F48022F9E70120704730B597
:101FC40080B10568BDF80C00AC68800640EA835314
:101FD400002043EA81416FF39E1441EA82122243B6
:101FE400AA6030BD0120FCE730B10268002093688C
:101FF40061F30203936070470120704750B1036896
:102004009A6821B142F0200200209A60704722F0C1
:102014002002F9E70120704750B103681A6821B122
:1020240042F0807200201A60704722F08072F9E753
:102034000120704750B103681A6821B142F40002CC
:1020440000201A60704722F40002F9E7012070476B
:1020540050B103689A6821B142F0004200209A60AE
:10206400704722F00042F9E70120704750B103683D
:102074009A6821B142F0080200209A60704722F069
:102084000802F9E70120704740B102680020936D0F
:1020940023F47F0343EA01419165704701207047AF
:1020A40060B100685206836D42EA012123F0007397
:1020B40023F47F4319438165002070470120704752
:1020C40010B5F0B10468A06DB1B1022A84BF023A20
:1020D400D2B213026FF30F0003F4FE43034312065C
:1020E40054BF43F0806343F0A06343F00A0323F03A
:1020F40000730020A36510BD034B034043F000733D
:10210400F7E70120F7E700BF0000FFFA30B10268EB
:10211400936C23F4783343EA41319164704730B1CE
:102124000268136D23F4783343EA41311165704733
:1021340048B10368D3F8882009B141F48031002004
:10214400C3F8881070470120704718B10368D3F8AA
:10215400880080B270477FB5054600283DD0C4682A
:1021640001B394F86A30002B37D094F9726094F973
:102174006E3094F96C1094F96D20039694F97160A3
:10218400029694F97060019694F96F400094FFF7F9
:10219400D7FDEB6893F86A102846FFF7C6FD0020C8
:1021A40004B070BD94F84630BBB194F94E6094F914
:1021B4004A3094F9481094F94920039694F94D60F3
:1021C400029694F94C60019694F94B400094FFF701
:1021D400B7FDEB6893F84610DEE70120E0E77FB532
:1021E4000546002836D0C468E1B194F96E6194F9CB
:1021F4006A3194F9681194F96921039694F96D612F
:10220400029694F96C61019694F96B410094FFF77E
:1022140097FDEB6893F866112846FFF786FD0020CA
:1022240004B070BD94F95C6194F9583194F9561175
:1022340094F95721039694F95B61029694F95A61D3
:10224400019694F959410094FFF77AFDEB6893F8ED
:102254005411E1E70120E3E730B5C46887B004B363
:1022640038291ED801EBC1010C44237CCBB194F96D
:10227400185094F9133094F9122094F9111004951C
:1022840094F91750039594F91650029594F9155042
:10229400019594F914400094FFF709FE002007B05B
:1022A40030BD0120FBE7F0B5C4680646174687B089
:1022B40054B3382928D801EBC1052C44237C1BB323
:1022C40094F918C094F9133094F9122094F9111068
:1022D400CDF810C094F917C0CDF80CC094F916C00D
:1022E400CDF808C094F915C0CDF804C094F9144091
:1022F4000094FFF7DCFDF3683A462B443046197C22
:10230400FFF790FD07B0F0BD0120FBE72DE9F04198
:102314009046C268044686B0002A72D0382970D824
:1023240001EBC107D619317C00296AD0382B68D853
:1023340003EBC3052A44137C002B62D096F918C022
:1023440096F9133096F9122096F91110CDF810C0B1
:1023540096F917C0CDF80CC096F916C0CDF808C090
:1023640096F915C0CDF804C096F914600096FFF7ED
:102374009EFDE068284490F9186090F9133090F9B4
:10238400122090F91110049690F91760039690F9B1
:102394001660029690F91560019690F91400009069
:1023A4002046FFF7A5FD002223680121DA67E368D0
:1023B40022682B441B7C2046D36223680C9AC3F802
:1023C4008020FFF7E0FD2046FFF7EBFD2368C3F80C
:1023D4001C80E36822683B441B7C93612046FFF722
:1023E40043FD0028FAD009212046FFF737FD0021DC
:1023F400FFF7C9FD2046FFF7D4FD084606B0BDE847
:10240400F0810120FAE7000070B50446002841D0AD
:10241400C368002B3ED000293CD093F8935101218E
:10242400CDB3FFF7DAFC002214212046FFF73BFF6F
:102434002046FFF728FDC30704D540F267413D4815
:1024440004F056FA002215212046FFF72CFF05461A
:1024540020B1002220461146FFF725FF0221204625
:10246400FFF7B4FC01212046FFF7B7FC00222B2123
:102474002046FFF718FF6DB101212046FFF7ADFCA0
:10248400002202212046FFF70EFF2046FFF7F2FC50
:102494000028F5D070BDFFF7A0FC2A460221204693
:1024A400FFF701FF2046FFF7EEFC2A4614212046E1
:1024B400FFF7F9FE10B92046FFF7E5FCE3681B7A45
:1024C400ABB3012103F00F051B0901FA03F3DBB2DF
:1024D4000DB11D46002300221521204643EA05259F
:1024E400FFF7E1FE064620B1002220461146FFF721
:1024F400DAFE29462046FFF769FC02212046FFF751
:102504006CFC002203212046FFF7CDFE002EC1D033
:1025140001212046FFF761FC002202212046FFF73B
:10252400C2FE2046FFF7A6FC0028F5D0B2E702253C
:10253400D1E700BF82A9002038B504460D46FFF755
:1025440063FF29462046BDE83840FFF704BE38B58E
:1025540004460D46FFF758FF29462046BDE838409B
:10256400FFF73DBE10B5044640B10268936A6FF3AD
:10257400150343F4802343F00103936203212046AF
:10258400FFF72BFC00229F212046FFF74BFC20463F
:10259400FFF779FC20F07F4010BD70B50446002899
:1025A4003ED0C368012193F89351002D3BD0FFF72F
:1025B40014FC002202212046FFF775FE88BB20464A
:1025C400FFF761FCC0B2E368DD790DB120EA0505CF
:1025D400002215212046FFF766FE064620B10022A0
:1025E40020461146FFF75FFE29462046FFF7EEFB23
:1025F40001212046FFF7F1FB002203212046FFF7CB
:1026040052FE6EB101212046FFF7E7FB00220221B2
:102614002046FFF748FE2046FFF72CFC0028F5D0A3
:1026240070BD0020CFE7FFF7D8FB2A4602212046E1
:10263400FFF739FE00283ED12046FFF724FCC6B23E
:10264400002214212046FFF72EFE18B92046FFF77A
:102654001AFCC5B2E368D97909B126EA010100225E
:10266400204641EA05251521FFF71DFE064620B147
:10267400002220461146FFF716FE29462046FFF7A2
:10268400A5FB02212046FFF7A8FB002203212046D8
:10269400FFF709FE002EC3D001212046FFF79DFB62
:1026A400002202212046FFF7FEFD2046FFF7E2FB51
:1026B4000028F5D0B4E72E46C2E7F8B5044650B377
:1026C4000023FF2201214FF050260568436080F863
:1026D400221080F82030C5F884200568AE670568AC
:1026E4002A6205686A6480F823308360FFF721FC5E
:1026F4002046FFF737FFC0F30727C0F30745C6B2EC
:1027040029463A463046FEF77FFB0146E06020B991
:102714002046FFF70EFC01200AE03A4629463046DF
:10272400FEF786FB00B1606194F823500DB10020E0
:10273400F8BD2046FFF731FF6369B3F1807F0DD9FF
:1027440021212A462046FFF7AEFD94F8201019B93E
:102754002046FFF7FCFEEAE70121F9E794F8201090
:1027640019B92046FFF7E8FEE1E70121F9E760B176
:10277400006850B1836D090623F0807301F0807105
:1027840023F0FF0311431943816570472DE9F04796
:102794000E4691460546002843D0C468ACB1B1F555
:1027A400805F3ED3A279120302F580528A4238D365
:1027B400C1F30902E17A1A44B2EB012F31D81C4665
:1027C4009A460027BAF1000F02DC2046BDE8F087E4
:1027D400BAF1400FD046A8BF4FF040082846414602
:1027E400FFF7FBFA324632212846FFF75CFD3B46F1
:1027F400002FB8BFFB1C4FEAA80123F0030201EB32
:10280400A3014A4409EB81018A4204D14744464466
:10281400AAEB080AD6E72846FFF735FB42F8040B73
:10282400F2E70024D1E710B5044640B3C36833B3DC
:10283400B1F5805F23D39B791B0303F580538B424F
:102844001DD30121FFF7C9FA002214212046FFF706
:102854002AFD28B92046FFF716FBC0B2C00810BDF8
:1028640002212046FFF7B9FA002202212046FFF791
:102874001AFD2046FFF707FBC0F30720EEE7FF2011
:10288400EDE738B50446D0B10368AB211D6815F0F7
:10289400010502BF1A6842F001021A600268936AD5
:1028A4006FF3150343F0010393620022FFF7BAFAB2
:1028B40025B92268136823F00103136038BD012091
:1028C400FCE718B1C068003818BF01207047002029
:1028D40070472DE9F047884699460446002845D0BC
:1028E4008368002B42D0B9F1000F3FD001680F6814
:1028F40032B310229A60002382684E465361826884
:1029040093618268D360802283681A610568043504
:10291400A06804F04DF850BBA06804F035F830BB53
:10292400236847F020071F60226809F1FF335362D0
:10293400414633462A46A068BDE8F04703F0D4BFB9
:102944004FF400719A60836809F1030659614FF4EA
:1029540000618368454699618368B608DA6080221D
:1029640083681A61036803F10408D1E70120BDE814
:10297400F08710B50A46044670B1806860B1E16A18
:1029840011B14FF0FF32002104F00AF822681368F5
:1029940023F02003136010BD0120FCE72DE9F04F64
:1029A40099B004460E469146FFF78BFF18B3002BEF
:1029B40000F0D780B3F5807F28BF4FF48073A168FF
:1029C4001D46626994F8203000293BD0B2F1807F23
:1029D40014D9022B14BF2727282739462046FFF78E
:1029E4003BFC49462B4601222046FFF772FF014675
:1029F40048B10025284619B0BDE8F08F022B14BF5A
:102A040016271727E9E732462046FFF74CFC012139
:102A14002046FFF7ECF9012332460093394602239E
:102A24002046FFF773FC0028E3D14FF47A71204667
:102A3400FFF79FFF0028DCD12268136823F02003EE
:102A44001360D7E7B2F1807F40F28280022B14BF7B
:102A5400272328232F464FF0000803934FF6FC7AD0
:102A6400402FD4BF0AEA070A0AF0400ABAF1000F5D
:102A74003FD0002220461146FFF715FC09EB08035E
:102A84000DF1200C03F1400E6246186859680833B2
:102A940003C273459446F7D14FF0000B4FEAAA02E4
:102AA40008AB53F8041B204605920493FFF78EF9F4
:102AB400059A0BF1010B9345049BF2D15146204634
:102AC400FFF78BF92046039906EB0802FFF7EBFBAF
:102AD40001212046FFF781F9002202212046FFF759
:102AE400E2FB2046FFF7C6F90028F1D0A7EB0A075E
:102AF400D0447B1E022B30D82369464433431B68E1
:102B04003A4609EB080107A8079303F02DFF0022BA
:102B140020461146FFF7C7FB07992046FFF756F9F1
:102B240004212046FFF759F9324620460399FFF75E
:102B3400BAFB01212046FFF750F90022022120466A
:102B4400FFF7B1FB2046FFF795F90028F1D051E7D4
:102B5400022B14BF162317237CE7002F3FF77EAF09
:102B640048E7184647E737B5046912780C4373B150
:102B740014F8013C01398DF8063002238DF8072042
:102B84000DF10602FFF70AFF012003B030BD6378A0
:102B94008DF806208DF807300DF106020223F1E7C7
:102BA40073B504460D46FFF78CFEE8B163690A4627
:102BB400B3F1807F4FF00001204694BF1B262926E5
:102BC400FFF771FB01212046FFF711F901232A4683
:102BD4000093314602232046FFF798FB003818BFC4
:102BE4000120404202B070BD4FF0FF30FAE773B5E8
:102BF40004460D46FFF765FEE8B163690A46B3F182
:102C0400807F4FF00001204694BF1D262A26FFF73F
:102C14004AFB01212046FFF7EAF801232A460093E4
:102C2400314602232046FFF771FB003818BF01200C
:102C3400404202B070BD4FF0FF30FAE773B504466E
:102C4400FFF73FFE30B30022012611462046FFF76E
:102C54002AFB01212046FFF7CAF8022300221E2185
:102C640020460096FFF752FB051E18BF012594F875
:102C740020306D42022B07D163693146B3F1807F66
:102C8400204604D9FFF763FC284602B070BDFFF765
:102C940053FCF9E74FF0FF35F6E7000008B5E8B15B
:102CA40003680F4A93420CD002F58052934215D127
:102CB400062001F0DBFA022805D1BDE8084001F046
:102CC4000ABB0420F5E7032803D1BDE8084001F05E
:102CD40005BB0120BDE8084001F070BB002008BD21
:102CE4000010045038B5054608B9002038BDFFF778
:102CF400D9F804460028F8D02846FFF7CFFFB0FBE8
:102D0400F4F0F3E708B1FFF72DBCFF20704773B56B
:102D14000D46044618B94FF0FF3002B070BDC368C9
:102D2400002BF8D0B1F5805FF5D39B791B0303F535
:102D340080538B42EFD3FFF776FDE3682A0B9B7930
:102D4400B3EB153FE7DB0126013A06FA02F2024033
:102D540013D111462046FFF7A6FA31462046FFF765
:102D640046F802232A46342120460096FFF7CEFA7D
:102D7400002818BF6FF00200CFE76FF00100CCE726
:102D84002DE9F3410E4617461D46044618B90020A6
:102D940002B0BDE8F081C268002AF8D0B1F5805FC6
:102DA400F5D393791B0303F580538B42EFD3D27A87
:102DB400C1F309032B44B3EB022FE8D8FFF733FD2B
:102DC400E268330B9279B2EB163FE0DB4FF0010877
:102DD400013B08FA03F30342D9D1A3681BB333219F
:102DE4002046FFF739FA42462B4639462046FFF77C
:102DF40070FD02460028CAD101462046FFF753FA67
:102E040041462046FEF7F3FF022332463321204693
:102E1400CDF80080FFF77AFA0028B8D12268136849
:102E240023F0200313602846B2E77FB504460A4620
:102E340051B3C56895F8FF31002B3BD090F8203092
:102E4400C3B395F9076295F9022295F9033295F90E
:102E54000112039695F90662029695F905620196A8
:102E640095F904520095FEF76BFFE368204693F84A
:102E7400FF11FEF75AFF0121204694F82520FFF7A1
:102E84001FF9002004B070BDFFF71AF9636994F8C4
:102E94002010B3F1807F06D919B92046FFF79FF9B6
:102EA400EFE70121F9E719B92046FFF754F9E8E7FC
:102EB4000121F9E70120E5E730B50546012487B093
:102EC40078B104940024224621462346CDE90244E5
:102ED400CDE90044FEF7EBFF224621462846FEF7E3
:102EE400A1FF204607B030BD10B50446F0B102681A
:102EF4001420D2F8943043F00043C2F8943002F026
:102F0400FBFC2368D3F89420D205FBD5D3F89400B6
:102F1400D3F89420C0B222F00042C3F8942094F86D
:102F2400253023F07F03034384F8253010BD0000CF
:102F34002DE9F8430E4690461F460446002800F04B
:102F44009D80002900F09A80FEF7CEFE2068FFF7EE
:102F5400BEFC3369002184F83430B3680546A363AA
:102F6400F36884F824101B05E363022384F83630E5
:102F74003369C4F808805A1E5342534184F82330FD
:102F8400B8F1000F58D0002F56D03B68C8F8003075
:102F9400A368FA685A601022A3689A608022A36822
:102FA400D960A3681A614FF48052A3685961A36879
:102FB4009961A368D961A3681A62A3685962C0B110
:102FC4006FF07F43984214D0012694F82330002BED
:102FD4003DD1002E3DD12046FFF753FC304602F090
:102FE4008BFC322002F088FC2046FFF78BFE05465E
:102FF4002FE001212046FEF74AFF5E4BA2692046DE
:103004009A424FF000028CBF01211146FFF7AFFB3B
:1030140020469DF82010FEF741FF94F835302BB17F
:10302400012B10D100212046FEF7F6FF0121204696
:10303400FEF77FFF0026C8E7002DDED06FF07F4348
:103044009D42C1D1D9E7022BF0D10121EBE7002E3B
:10305400CAD025635FFA85F8C5F30729C5F3074588
:103064004A4629464046FDF7CFFE0746E06038B998
:1030740001462046FEF75DFFC4E90E7701200BE010
:103084004A4629464046FDF7D3FE08B1E063606135
:1030940094F8233013B10020BDE8F883002E65D1E5
:1030A4002046FFF77AFA6369B3F1807F30D932465C
:1030B40021212046FFF7F7F894F8203053B9314620
:1030C400204684F82660FFF742FA07212046FEF7DF
:1030D4008BFFE0E701212046FFF739FA94F82670C8
:1030E400012FF2D14A4629464046FDF7ABFE38B1DE
:1030F4002046FFF7F9FE39462046FFF796FEE4E73F
:10310400324631462046FEF7DBFF84F82660DCE7D2
:1031140094F8203033B93146204684F82660FFF70E
:103124000BFAB8E701212046FFF706FA94F8267057
:10313400012F15D14A4629464046FDF783FE38B192
:103144002046FFF7D1FE39462046FFF76EFEA2E780
:10315400324631462046FEF7B3FF84F826609AE7EC
:10316400324631462046FEF7ABFF94E784F826301A
:1031740091E700BF00E1F5051FB50190019B114CDB
:103184000BB1206840B9002001F028F90E4BB0FBC8
:10319400F3F0019B20609BB1302882BF019B03F1B7
:1031A400FF330193019B5BB10522019B013B434328
:1031B400B3FBF2F30393039B5A1E0392002BFAD141
:1031C40004B010BDB0EB002040420F0070B50E46B5
:1031D4001546044658B302220368DA600268936D08
:1031E40023F00073936502680020D2F8943043F012
:1031F4000043C2F89430FFF7BFFF1420FFF7BCFF71
:103204002068D0F89430DB05FBD5D0F89430D0F8A2
:103214009420DBB222F00042C0F894205A1E32708F
:1032240001220020043B2B702368DA6070BD01206A
:10323400FCE7000037B514460546002843D00029B2
:1032440041D0FEF751FD2846E1B2FEF727FE28469D
:10325400FFF748FD1D4B984230D91D4B98422FD99A
:103264001C4B984222D940F2B63440F274431A4AB5
:10327400904288BF1C46002201212846FFF777FAB6
:1032840000212246022328460091FEF798FE0446B8
:1032940048B906212846FEF7A7FE044618B90121BD
:1032A4002846FEF746FE204603B030BD0B4B4FF4D4
:1032B4003E749842DFD800221146DEE7B424FAE7D0
:1032C4004FF4BE74F7E70124EDE700BF00366E014A
:1032D400006CDC0200D8B805000E270700879303B2
:1032E400F0B50E461746054687B0D8B1072200242C
:1032F4000323CDE903220121CDE9014300942346B0
:10330400FEF7D5FD02212846FEF767FD394628461B
:10331400FEF75CFD3246C0212846FEF783FD2046B9
:1033240007B0F0BD0120FBE72DE9FF410C4616462E
:103334001F460546002840D06B46214A1068516854
:1033440003C39068D16803C32846E1B2FEF780FE48
:1033540007F110036B4413F8088C4FEA48185FFA1E
:1033640088F80CB304AB03EB560313F8104CA40019
:1033740044F0210464B204F0FD0200212846FFF762
:10338400AFFF711E284649B2FEF7C0FE4246042133
:103394002846FFF7A5FF791E284649B2FEF7BFFE6F
:1033A400002004B0BDE8F08106F110036B4413F86B
:1033B400104CA40044F00104DCE70120F1E700BF55
:1033C400C0970020F0B50E461746054687B0D8B121
:1033D400072200240223CDE903220121CDE9014380
:1033E40000942346FEF763FD04212846FEF7F5FC0E
:1033F40039462846FEF7EAFC3246C0212846FEF745
:1034040011FD204607B0F0BD0120FBE730B50546AD
:1034140085B0A0B100240721022390F82520CDE92E
:1034240002115200CDE9004352B22346FEF788FC54
:1034340021462846FEF779FC204605B030BD012020
:10344400FBE730B5054685B090B10721002402237F
:10345400CDE90211CDE90043234690F92620FEF779
:1034640098FC80212846FEF788FC204605B030BD34
:103474000120FBE7F0B5044687B000283BD090F864
:103484002330052B34D0033B012B2ED801260327F0
:103494000023072576B27FB21A4601212046CDE9E2
:1034A4000355CDE901570096FEF701FD0022FF21E7
:1034B4002046FEF7B7FC94F82330052B0FD10023E8
:1034C40001211A462046CDE90355CDE9015700965E
:1034D400FEF7EDFC0022FF212046FEF7A3FC0020AE
:1034E40002F00AFA032002F007FA002007B0F0BD48
:1034F40003260227CCE70120F8E7000030B5044694
:1035040085B000286ED000296CD0FEF7EDFB23684F
:103514000DF10E020DF10F0120461D68FFF756FE56
:1035240001212046FEF7BAFC2046FFF7DBFB2E4BB9
:1035340005F00105984236D8142303218DF80E3086
:103544008DF80F3008460023B42284F8251084F83F
:103554002610062100902046FEF731FD0721204663
:10356400FEF742FD01212046FEF780FD9DF80E1076
:103574002046FEF789FD00229DF80F102046FEF735
:103584008FFD01212046FEF7D4FC01212046FEF7E1
:10359400DEFC2DB9154B1B6803F00303032B1DD16F
:1035A400002005B030BD124B98420BD903F137739C
:1035B40003F5D84398420BD907211420082340F27D
:1035C4003252C2E705210E20032340F2B632BCE793
:1035D40006211120052340F27442B6E72046FFF786
:1035E40049FFDDE70120DCE7016CDC0200000C5040
:1035F400011C4E0EF0B5044685B0002800F09680FC
:10360400002900F09380FEF76FFB23680DF10E0292
:103614000DF10F0120461E68FFF7D8FD0121204659
:10362400FEF73CFC2046FFF75DFB414B0546984204
:10363400404F06F0010650D8142303218DF80E30B4
:103644008DF80F30B4220023009120460621FEF7A6
:10365400B6FC07212046FEF7C7FC01212046FEF7F1
:1036640005FD9DF80E102046FEF70EFD00229DF884
:103674000F102046FEF714FD01212046FEF7BEFC84
:1036840001212046FEF755FC01212046FEF75FFC90
:103694002EB994F8273013B92046FFF7EBFEBD424C
:1036A4003AD9254B9D423CD90622022388253B2644
:1036B40084F82630012184F825202046FEF7C8FC32
:1036C400324600212046FFF77DFE2A46042120468B
:1036D400FFF778FE002005B0F0BDB8420DD9164BB7
:1036E40098420FD903F1377303F5D84398420ED8A3
:1036F4001421082340F23252A6E70E21032340F29C
:10370400B632A1E71121052340F274429CE7172148
:1037140009234FF4BE6297E70422002308253326C9
:10372400C6E70522002308253726C1E70120D2E792
:10373400016CDC02011C4E0E01882A1170B50E4684
:103744001546044686B0F8B107220323CDE90123C8
:103754000023CDE9032200930121FEF7A8FB3146A3
:103764002046FEF74EFB02212046FEF736FB294693
:103774002046FEF72BFB4FF480326021204606B032
:10378400BDE87040FEF74EBB06B070BD38B50446C8
:103794000122FFF7B3FE2046FFF7A4FA154B984227
:1037A4001FD9154B98421FD903F1F47303F59043C5
:1037B40098421CD942F28F7541F28F730F4A90429E
:1037C40098BF1D4601212046FEF7CFFB2A4620461E
:1037D4000021FFF7B3FF01212046FEF739FC00204A
:1037E40038BD4EF28F75EDE74FF28F75EAE740F280
:1037F4008F75E7E781FE210A01D4650C01882A113F
:103804001FB560B10721032390F82520CDE90013EB
:10381400013A0023CDE9021152B2FEF791FA05B044
:103824005DF804FB1FB560B10721032390F826203F
:10383400CDE90013013A0023CDE9021152B2FEF79B
:10384400A8FA05B05DF804FB2DE9FF470B690446AF
:1038540080F823300B69033B032B00F28580DFE8FB
:1038640003F0026358792046FFF748FE0322064618
:1038740008212046FFF734FD2046FFF733FA4D4B6D
:1038840098425FD903F1A46303F5834398425BD95B
:1038940003F1377303F5D843984257D9464B9842FE
:1038A40056D9464B984294BF072500254FF000088F
:1038B40007274FF0030A4FEA4509434609F1FF324F
:1038C40039462046CDE90277CDE9008AFEF738FA79
:1038D40041462046FEF729FA43466A1E39462046E9
:1038E400CDE90277CDE9008AFEF753FA802120461C
:1038F400FEF743FA2B464A4601212046FFF714FD02
:103904004FF6FF712046FEF713FC304604B0BDE8C5
:10391400F0872046FFF76EFE2046FFF777FD20462E
:10392400FFF78FFD0026EBE72046FFF7E7FD432274
:10393400064608212046FFF7D3FC01212046FEF766
:1039440079FB99E70325B1E70425AFE70525ADE742
:103954000625ABE72046FFF719FF2046FFF750FF87
:103964002046FFF75FFFDDE7002603254FF001083F
:1039740002272046FFF75EFC3346062229462046EE
:10398400CDE90067CDE90258FEF7DAF9EB212046CC
:10399400FEF7CBF93346324629462046CDE9006787
:1039A400CDE90258FEF7F5F938212046FEF7E5F98E
:1039B4000646A5E70129DE0701EBC9130184D717E1
:1039C40000000000010203040000000004020601DC
:1039D40070470000002310B5084A916B814205D856
:1039E400D46B2144814201D958B210BD0133052B57
:1039F40002F14402F1D14FF0FF30F6E764E8002011
:103A0400064A936B834206D8D26B1344834294BF15
:103A14000020012070470020704700BF18E60020F6
:103A240003460244934200D1704703F8011BF9E7AF
:103A34007047704738B50546FFF7E2FF044648B9BA
:103A44002846FFF7C7FF431C06D04422034B02FB62
:103A5400003038BD0248FCE72046FAE764E800205D
:103A640018E600200120704710B50C46C9B12AB9E8
:103A7400022000F0A3FCB0FBF4F010BD00F0F6FB54
:103A84000228024602D100F026FCF4E7012802D104
:103A940000F01EFCEFE7044B0448032A18BF184645
:103AA400E9E70846E9E700BF006CDC0200D8B80586
:103AB4002DE9F74F442400252D4FDFF8C4A004FB63
:103AC40000749946DAF80030064688469346E56263
:103AD40013B1284C284BE362D8F80C30202B03D9BF
:103AE400002003B0BDE8F08F86B3012E38D0B9F1C1
:103AF400010F04BF8F2384F82530DAF8003084F8EE
:103B0400269043B1FFF7AEFF012201460546062089
:103B1400FFF7AAFFA0616821184A5B4601FB062251
:103B2400204641460095FFF703FA0028D8D1DAF879
:103B34000030EDB2A5623BB1442303FB0677A36BCF
:103B4400FA6B1344A36323610120CAE700F0A6FFC4
:103B54000122054601460420FFF786FFA061C6E75F
:103B640000F0A2FF3246054601460620F4E700BFF6
:103B740064E8002018E60020D19700205CE60020CD
:103B840014E600200020704770B50D4C8AB026461C
:103B94004422002105AD0B48FFF742FF0FCE0FC5AD
:103BA40033682B6001AD04F114030FCB85E80F00DB
:103BB40000232A4605A90120FFF77AFF0AB070BD49
:103BC400A89A0020A8E80020002070470020704731
:103BD40000220C4B10B51A60FFF7D4FF041E18BF67
:103BE4000124FFF7D1FF08B144F00204FFF7ECFF12
:103BF40008B144F00404FFF7E9FF08B144F00804F5
:103C0400204610BD14E6002010B586B000F046FF33
:103C14003022002104461748FFF702FF142201A8AE
:103C2400FFF7FEFE144B0193A3F558335B68C3F30F
:103C34000223023B042B1AD8104AD35C8B4208BFE0
:103C44000323082205934FF08053CDE9033200F09B
:103C540023FF0346591E4B4206484B41224601A905
:103C640080F82730FFF7F0FD002006B010BD0323D5
:103C7400E7E700BFE4E5002000100450A09A00200C
:103C8400B0F1805F08B502D0B0F1C04F04D1034851
:103C9400FFF728F8400808BD0020FCE7E4E5002011
:103CA4000303050206000000002004500200000087
:103CB4000000001220000000000000001C1008504A
:103CC40000000000330000000100000010B5064CA5
:103CD40023780BB1002010BD044B9B6A03B19847B5
:103CE40001232370F6E700BFD8ED002070E8081226
:103CF400182208B5034902F063FE0028014818BFE2
:103D0400002008BD70E80812FFF77EBFFFF7B8BFB8
:103D1400EFF3108072B6704780F31088704740BF8D
:103D2400714A1368012B04D04FF0010313606F4AEA
:103D340010606F4A11606F484FF080510160704706
:103D4400EFF3108272B66848016889B34FF000013E
:103D5400016066480168B1B1EFF309811EF0100FEC
:103D640008BF21ED108B21E9F00FEFF30B8441F82C
:103D7400044D4FF000041EF0100F08BF012441F859
:103D8400044D006801605A490968096808C910C9E6
:103D940084F30B88B1E8F00F002B18BFB1EC108B43
:103DA40081F309884EF0100E002B18BF2EF0100E70
:103DB40082F310884EF0040E70474F484FF47F0191
:103DC400D0F8002041EA02010160704748490860C8
:103DD400EFF3148222F0040282F3148843494FF073
:103DE4000000086040494FF00100086042484FF469
:103DF4007F01D0F8002041EA020101603D484FF004
:103E0400805101603D480068006800BF80F3088865
:103E140061B662B6704700BF20BF7047EFF30880F9
:103E24001EF0040F01D0EFF3098020E9F00FEFF347
:103E34000B8440F8044D40F804ED40F804ED1EF006
:103E4400040F02D080F3098801E080F3088800B5EC
:103E540002F042FD5DF804EB4EF0040E7047EFF300
:103E640008801EF0040F01D0EFF3098020E9F00F61
:103E7400EFF30B8440F8044D40F804ED40F804EDF2
:103E84001EF0040F02D080F3098801E080F3088853
:103E940000B502F011FD5DF804EB4EF0040E70471E
:103EA40010B4EFF3038410B47C4600B500B54DF8AC
:103EB40004CD0FB4089C2DE9F00FEFF30B8410B47C
:103EC40000B5684602F000FD01BC10BC84F30B8809
:103ED400BDE8F00F0FBC5DF804CB5DF804EB10BC3B
:103EE40010BC10BC70470000841E01208C1E0120F1
:103EF400881E012004ED00E020ED00E008ED00E064
:103F0400104A1378FF2B05D10F4B9B68DB4303F05A
:103F1400010313700D4A506B4BB10D4B1B681BB959
:103F24000A23B0FBF3F070470A4B1B88F9E74FF400
:103F34007A72C0F30E03C00B5343504300EBD330EB
:103F4400704700BFC6DF002000B00C5000000C50CA
:103F5400C4130120C013012008B5002A00F05581C4
:103F6400002900F05281612800F24A81DFE810F054
:103F740062002C014801690028016D0024014801F8
:103F84007100F0001C011801480175004801790016
:103F94007D004801810048014801860013018B001F
:103FA40090009500A200A700AC0048014801480118
:103FB400B100B6000E010901BB00C0004801480170
:103FC400C50048014801CA004801CF00D400E900F7
:103FD400F900480148014801480148014801D90055
:103FE4000401DE003F01E100E3004801480148010B
:103FF400E5004801E700480148014801EB00480199
:10400400480148014801480148014801F200F20012
:10401400F7004801480148014801FB0048014801F4
:1040240000012001300135013A019A0048010201E2
:104034004401F20000230B6001234FF0A040136001
:1040440008BD00230B600223F7E700230B60042361
:10405400F3E700230B601023EFE700230B6020231A
:10406400EBE700230B604023E7E700230B6080238A
:10407400E3E700230B604FF48073DEE700230B605B
:104084004FF48063D9E700230B604FF40063D4E757
:1040940000230B604FF48053CFE700230B604FF4F1
:1040A4000053CAE701230B604FF400134FF0804024
:1040B4001360C5E700230B604FF48043BDE7002382
:1040C4000B604FF40043B8E700230B604FF48033D8
:1040D400B3E700230B604FF40033AEE700230B601B
:1040E4004FF48023A9E700230B604FF48013A4E767
:1040F40000230B604FF400139FE700230B604FF481
:1041040080039AE700230B604FF0007395E70023C8
:104114000B604FF0006390E700230B604FF0805377
:104124008BE700230B604FF0004386E701230B600D
:1041340083E7012386E7012388E701238AE7012334
:1041440090E7012396E701230B604FF4007374E7B3
:1041540001239EE701230B604FF400236DE7012345
:10416400C2E70123CFE701230B604FF4000364E7A8
:104174000123C3E70023F7E700230B604FF48073A8
:1041840094E700230B604FF480638FE700230B60F8
:104194004FF400738AE700230B604FF4004385E774
:1041A40000230B60402381E700230B6020237DE77D
:1041B40000230B60102379E700230B60082375E7C5
:1041C40000230B60042371E700230B6002236DE7D7
:1041D40000230B604FF4801368E700230B604FF457
:1041E400002363E700230B604FF480235EE7002382
:1041F4000B604FF4803359E700230B60802355E7AD
:1042040040F24B31024802F073FB002018E700BF74
:10421400BBA9002007B5134A134902EBC002D1F829
:104224009C309278022862F30303C1F89C300DF1AC
:10423400070011D1FCF766F810B10B238DF8073095
:10424400094A9DF80710D2F8943061F30303C2F8C9
:10425400943003B05DF804FBFCF760F80028EFD05D
:104264000D23EBE778A8002000A00C504FF0A043EA
:104274000D281A6A0DD842F6F173C34013F0010FEA
:104284000CBF012303238340134023FA00F0C0B280
:1042940070470123F7E70000012803D002280ED05D
:1042A400002070474FF0A043DB6A63B113F00100B4
:1042B4000AD00648C3F3830303FB000070474FF0A2
:1042C400A0431B6BF1E71846704700BF00366E0130
:1042D4000120FFF7E1BF0220FFF7DEBF0020704797
:1042E40038B5244BA1F1B774A4F558549C423FD877
:1042F400012839D0022839D040F2A4611E4802F0C6
:10430400F7FA1E4B0020D3F8942091075EBFD3F830
:10431400942042F00202C3F89420D3F89420D207E8
:104324005EBFD3F8942042F00102C3F89420144AEB
:104334002B68B4FBF2F423F001032B602B6823F405
:10434400005323F03C0343EA840343F4805343F0D3
:1043540001032B6001F0D0FA0A2001F0CDFA2B689A
:10436400002BFCDA002038BD064DCAE7064DC8E72D
:104374000120F8E7002A7515BBA9002000B0005001
:1043840000366E012C000050300000500146012020
:10439400FFF7A6BF01460220FFF7A2BF4FF0A042DD
:1043A400D36A002023F00103D36270474FF0A04288
:1043B400136B002023F0010313637047012808D115
:1043C4004FF0A0431B6A03F00303032B01D1FFF753
:1043D4007FBF0148704700BF006CDC02021E08BFAB
:1043E400012210B51046FFF7E9FF012A04460AD05E
:1043F400022A10D040F274710A4802F079FA0123BB
:10440400B4FBF3F010BD4FF0A0435B6ADBB2012BA9
:10441400B8BF0123F4E74FF080435B6903F03F0327
:10442400F5E700BFBBA900204FF0A04310B50D284D
:104434001B6A18D842F6F172C24012F0010F0CBF89
:104444000122032202FA00F411404FF0A04223EAB1
:10445400040381400B43136220B90120FFF7BEFF20
:10446400024B186010BD0122ECE700BF04D8002005
:104474000028D8BF002008B5CCBFFF23034600297D
:1044840012DB002A43F4E06340EA01200EDA4FF025
:10449400A0414A6A22EA030303434B620120FFF767
:1044A4009DFF074B186008BD002A04DB43F4E0437A
:1044B40040EA0230EBE7002BF0D0FF23E7E700BF30
:1044C40004D8002070B50C46194D0646FFF7A2FE2D
:1044D4002B69FA2023F004032B6101F00DFA302C30
:1044E4000DD800210846FFF79FFF30200422002149
:1044F400B0FBF4F0FFF7BCFF0024204670BD01F0D0
:1045040089F90C4800EBC60043680B48EB61604333
:10451400FFF73CFF04460028EFD10121062208469C
:10452400FFF7A6FF03212046FFF77EFFE4E700BF65
:1045340000B0005078A8002040420F002DE9F3415C
:104544001F4C204F04EBC0023B6B9278054662F38C
:1045540017534FEAC0083B630DF107000E46FBF703
:10456400D1FE10B10B238DF807309DF8071014F914
:10457400352030250A440021FB6C084662F385038C
:10458400FB64FFF751FF302EB5FBF6F504D940F676
:104594002B210D4802F0ACF9042200212846FFF734
:1045A40067FFFFF7FBFE01F041F94444074B6268E3
:1045B400DA611A6942F004021A6102B0BDE8F081BE
:1045C40078A8002000A00C50BBA9002000B0005027
:1045D40070B5314E054633780C46012B43D9023B66
:1045E400012B02D90125284670BD2C4B53F82120FC
:1045F400FFF771FE9042F5D8012905D829462046D7
:10460400FFF79CFF002535E000210846FFF70CFF6B
:104614002046FFF7FFFDFA2001F06EF9FFF7BEFE1A
:10462400302D0DD801F002F900210846FFF7FCFEF9
:10463400042200213020B0FBF5F0FFF719FFE1E779
:1046440001F0E8F816486843FFF7A0FE0546002885
:10465400C8D1012106220846FFF70AFF0321284694
:10466400FFF7E2FECEE7012909D901462046FFF70C
:1046740029FF05460020347001F03EF9B3E78B4270
:1046840003D14FF0FF321146D4E790210220FFF707
:1046940019FF0028A6D1B1E759D8002068A8002046
:1046A40040420F00002808B511DD002926DB01284F
:1046B40000D139B13F2343F4E06340EA0120002AEA
:1046C4000BDA0EE00146F5E700200346F3E7002984
:1046D400FADA002A0CDB0020034643F4E04340EA04
:1046E40002304FF080414A6922EA030303434B61DD
:1046F4000220FFF773FE024B186008BD3F23DEE77C
:1047040004D8002038B5041E08BF012420460D46F5
:10471400FFF764FE012C08D0022C0ED00A4840F2A8
:10472400957102F0E5F8002006E04FF0A0435B6AC3
:104734003DB1C3F30223D84038BD4FF080435B69D9
:10474400F6E7C3F30233F6E7BBA900204FF080433A
:104754001A6842F480221A601A685203FCD51A6857
:1047640022F480221A607047024A136823F004037B
:104774001360704700000440134A1368590721D49A
:10478400116800280CBF01234FF0FF3341F00401EE
:1047940011604FF0804243F48013136011680029C4
:1047A400FCD0094A116CC80606D5116C41F002010F
:1047B4001164116CC906FCD44FF080410A6822EAE6
:1047C40003030B60704700BF0000044007B56A464E
:1047D40001A9FFF7C1FBB0F1A04F0FD1019B13B1A9
:1047E400012B11D10C480368009A1343036003683A
:1047F40023EA0203036003B05DF804FBB0F1804FC9
:1048040002D1019B002BEED040F62C01034803B0EB
:104814005DF804EB02F06CB804000050BBA9002062
:1048240007B56A4601A9FFF797FBB0F1A04F05D180
:10483400019B83B1012B06D10F4B0DE0B0F1804FEA
:1048440001D1019BB3B140F64B010C4803B05DF8B4
:1048540004EB02F04DB80A4BEFF31081012282F30E
:1048640010881A68009802431A6081F3108803B014
:104874005DF804FB034BEFE70C000050BBA90020DC
:10488400080000500400004007B56A4601A9FFF77C
:1048940063FBB0F1A04F05D1019B83B1012B06D17D
:1048A400104B0DE0B0F1804F01D1019BBBB140F63C
:1048B40068010D4803B05DF804EB02F019B80B4B26
:1048C400EFF31081012282F310881A68009822EA1B
:1048D40000021A6081F3108803B05DF804FB044BF6
:1048E400EEE700BF0C000050BBA9002008000050F8
:1048F400040000402DE9F8432A4B1B69002B4EDAD3
:104904004FF0A0456B6B4FF00B096FF30F036FEA89
:1049140093336FEA83334FF400744FF48078224E5C
:104924006B63736F214F43F4C0037367736F43F07A
:104934004063736747F6E073726F03EA44133A40C7
:1049440013437367032000F0D7FF6B6B43F080437E
:104954006B636B6B002BFCDAA96BAA6B6B6B90B26D
:1049640023F08043B0EB114F6B634FEA114335BF23
:104974001B1AC01A4444A4EB080435BF98B280B291
:10498400A4B2A4B23F2804D9B9F101094FEA5808E6
:10499400D0D1A02894BF00200120BDE8F8830120D5
:1049A400FBE700BF00000C5000A00C501F80FFFF6D
:1049B4000028D6BF0020FF230346002910DB09028C
:1049C40001F4E061002A43F4E06340EA010009DAFB
:1049D4004FF0A0414A6C22EA030303434B6470473F
:1049E400002A09DB002A08BF0122120302F4E04274
:1049F40043F4E0431043EBE7002BF0D0FF23E7E759
:104A04004FF0A0435A6C22F480225A645A6C61F32A
:104A140011425A64704708B50F20FFF735FF0D2087
:104A2400FFF732FF01200021FFF7EAFF02460C20C6
:104A3400FFF7BEFF00210C20FFF7F6FC01F050FF4A
:104A440008BDF0280DD8902807D8302807D8182892
:104A540094BF00210121FFF7BBBD0321FBE7022125
:104A6400F9E701207047000000000000000000008A
:104A740000882A1100882A11FB060900300310005F
:104A8400FD080A0031031100000B0D00130213008E
:104A9400020D0F001302130000207047014B188809
:104AA400704700BFF2D70020014B1888704700BF41
:104AB400F0D700200048704700E00012443A5C64DC
:104AC40065765C736633325C736633327465737413
:104AD4005C5369466C692D53444B5C637573746F06
:104AE4006D65725C626F617264735C736633326CA1
:104AF4006235322D6C63645F626173655F746573E4
:104B0400745C6273705F696E69742E6300443A5C0E
:104B14006465765C736633325C73663332746573D2
:104B2400745C5369466C692D53444B5C64726976BA
:104B34006572735C68616C5C6266305F68616C5F4F
:104B44006770696F2E6300443A5C6465765C7366D3
:104B540033325C73663332746573745C5369466CC8
:104B6400692D53444B5C647269766572735C686149
:104B74006C5C6266305F68616C5F6870616F6E2E3A
:104B84006300443A5C6465765C736633325C7366D6
:104B94003332746573745C5369466C692D53444BAA
:104BA4005C647269766572735C68616C5C626630C1
:104BB4005F68616C5F6D70692E6300443A5C646584
:104BC400765C736633325C73663332746573745C1B
:104BD4005369466C692D53444B5C64726976657203
:104BE400735C68616C5C6266305F68616C5F7263A1
:104BF400632E630052545F454F4B203D3D207200AD
:104C04003000666C617368310000000038B5002024
:104C1400FFF72CFB044628B900F0FCFD01212046D7
:104C2400FFF702FC01210C20FFF7FEFBFFF734FF26
:104C340001285FD0022000F07DFD0120FFF79CFDDC
:104C440001F0AAFE00F008FE012001F089FE022016
:104C540001F0BAFE012001F053FE01F07DFE01F0E7
:104C640087FE18B1B1213C4801F042FE3B4A3C4862
:104C7400936843F00103936001F046FE4FF08042D5
:104C8400136943F010031361EFF31085012383F3D9
:104C94001088344C23781BB9BE212F4801F028FE1C
:104CA4002378013BDBB2237023B92F4AD36A23F064
:104CB4000103D36285F31088284B9C6814F0010427
:104CC40018D101F005FE64222146C82001F020FE1F
:104CD40001F06AFE4FF41652B0FBF2F04FF47A7210
:104CE400B2FBF0F2214901320B6F23F47C7343EAE7
:104CF40002130B6702240425F020FFF7A2FE1C48D0
:104D0400FFF748FB002000F0F7FD1A4B1C801A4BFC
:104D14001D80FBF775FA21462846FFF785FB012223
:104D240000201146FBF776FAFEF7EEFF2146062037
:104D3400FFF77AFBFFF7B0FE012808D10A4A136B8C
:104D440023F001031363BDE83840FEF71DBFBDE83F
:104D54003840FBF7E7BF00BFBCA8002000B00C50F0
:104D640000B00040E0C7002000000C5000A00C5030
:104D740000882A11F2D70020F0D7002008B500F0EF
:104D8400FDF8BDE80840012000F05FBA7047014615
:104D94000122002000F038BA002108B5084601229B
:104DA40000F032FABDE8084001220021252000F07D
:104DB4002BBA4FF4FA7008B500F09EFD00F0A0F88D
:104DC400BDE8084001222520114600F01DBA08B5AF
:104DD40000F079F8BDE8084001220920114600F0EE
:104DE40013BA01220021092000F00EBA0146012263
:104DF400092000F009BA10B5012304461022092144
:104E0400022000F001FF012310220A21032000F0F8
:104E1400FBFE012310220B21042000F0F5FE0123E8
:104E240010220C21052000F0EFFE012310220D2199
:104E3400092000F0E9FE012310220E210A2000F0CF
:104E4400E3FE012310220F210B2000F0DDFE1022CF
:104E5400012311460C2000F0D7FE0123002219463D
:104E6400082000F0D1FE012300220321062000F0D7
:104E7400CBFE022C4FF0010310D0042C21D01022C1
:104E840006210D2000F0C0FE0121084601F000F8C3
:104E9400BDE810400121072000F0FABF10220421D0
:104EA400184600F0B1FE0123102205210D2000F068
:104EB400ABFE2146BDE8104001230022072000F08C
:104EC400A3BE0022DCE710B5012300225B211720DA
:104ED40000F09AFE0123002271212D2000F094FE9F
:104EE400012330224FF49C712C2000F08DFEBDE88C
:104EF40010400123302240F239112F2000F084BEEB
:104F040008B50022012340F2DB110F2000F07CFEE3
:104F14000123002240F25511102000F075FE0123F8
:104F240000224FF4A771112000F06EFE012300222D
:104F340040F24F11122000F067FE012300224FF4CB
:104F4400A871132000F060FE0123002240F25111E9
:104F5400142000F059FE012300224FF4A9711520FA
:104F640000F052FE0123002240F25311162000F0FB
:104F74004BFEBDE80840FFF7A6BF000010B5A14BEB
:104F84005B68C3F30223023B042B00F23181DFE8A8
:104F940003F0EAE84403E6000123002219460A204C
:104FA40000F032FE012300220321092000F02CFE30
:104FB400012310220921062000F026FE01231022DD
:104FC4000A21082000F020FE012330220B210720B3
:104FD40000F01AFE012330220C210B2000F014FEF5
:104FE4000121084600F054FF0121022000F050FF87
:104FF4000121032000F04CFF0121042000F048FFB0
:105004000121052000F044FF01210C2000F040FFA5
:1050140001210D2000F03CFF02E00220FFF7EBFE2F
:105024000123002219211E2000F0EEFD012300229D
:105034001B211A2000F0E8FD0123102221211D204C
:1050440000F0E2FD0123102222211B2000F0DCFDF0
:105054000123302223211C2000F0D6FD012330221D
:1050640024211F2000F0D0FD0123102252210E2004
:1050740000F0CAFD012310225C21182000F0C4FDB9
:10508400012330224FF49071202000F0BDFD012354
:10509400302240F22111212000F0B6FD01233022FC
:1050A4004FF49271222000F0AFFD0123302240F230
:1050B4002511292000F0A8FD012300225D211920DB
:1050C40000F0A2FD0121312000F0E2FE0121322096
:1050D40000F0DEFE0123002240F24911262000F0F8
:1050E40093FD012310224FF4A471272000F08CFDBE
:1050F400012300224FF4A3712A2000F085FD01232F
:10510400002240F247112B2000F07EFD01233022C3
:1051140040F2DD112E2000F077FD012310226721DB
:10512400232000F071FD012300226C21282000F0CF
:105134006BFD0123102272212E2000F065FD012356
:1051440010227821342000F05FFD012310227E21FB
:105154003A2000F059FDBDE81040FFF7D1BE04200D
:105164005CE701205AE7012310220921022000F004
:105174004BFD012310220A21032000F045FD0123E9
:1051840010220B21042000F03FFD012310220C21EA
:10519400052000F039FD012310220D21062000F026
:1051A40033FD012310220E21072000F02DFD0123E1
:1051B40010220F21082000F027FD102201231146A0
:1051C400092000F021FD0123102206210A2000F00D
:1051D4001BFD0123002219460B2000F015FD0321BD
:1051E400012300220C2000F00FFD012108460DE7E9
:1051F400002401340121204600F04AFE0D2CF8D190
:105204000EE700BF00B000507FB50B4B0B4C0546BA
:10521400002A18BF1C4601230E46CDE901030023D2
:10522400204601A9039300F02FF82046F2B2A9B258
:1052340000F02EF904B070BD00000A5000000840D0
:1052440001220B201146FFF7DFBF08B5FFF7F8FF77
:1052540008BD000008B50A4B984214BF40236023E0
:105264008B4206D901F01F034909138000EBC110DA
:1052740008BD044840F27E3101F03AFB0020F7E714
:1052840000000A500DA9002037B50C46054618B990
:10529400DC21484801F02CFB6368012B14D9112B45
:1052A40012D0454A23F4001191420DD002F5801228
:1052B400934209D023F4801302F50012934203D0E1
:1052C400DD213C4801F014FBA368022B03D9DE2145
:1052D400384801F00DFB284621880DF10602FFF73E
:1052E400B9FF034690B101226168BDF806000129A7
:1052F40002FA00F20CD1596A11435962996D1143B3
:105304009965DA64DA65DA639A645A6103B030BD88
:1053140011290CD1596A11435962996D1143996548
:10532400DA64DA65DA601A639A635A64EEE759B9A3
:10533400596A11435962996D11439965DA64DA65C2
:10534400DA639A649A61E1E79A6161681A4CA1424E
:1053540011D1D96A1143D9629A639A640122174917
:1053640082408D420BBF196A596D0A430A430CBF30
:105374001A625A65CAE7124CA14204D1D96A114390
:10538400D962DA6306E00F4CA14205D1D96A114310
:10539400D9629A635A64E1E70B4CA14203D1196BB9
:1053A40011431963D8E7094CA142D7D1196B1143B2
:1053B4001963E6E70DA900200000111000000A504F
:1053C40000002110000031100000411000005110B5
:1053D40037B50D46044620B940F251110E4801F08C
:1053E40087FA20460DF10602A9B2FFF733FF80B118
:1053F4000123BDF8061082698B401A438261426A18
:105404001A434262826D1A438265C364C365C363EF
:10541400836403B030BD00BF0DA9002037B50D462D
:10542400044620B94FF4BE71184801F061FA2946C8
:1054340020460DF10602FFF70DFFE0B10123BDF890
:10544400062041689340D140CC0716D4816AD140EC
:10545400C90712D4416B01EA030433EA01010CD1F8
:10546400016C8C4309D10369D340DB4303F001038E
:10547400181E18BF012003B030BD016921FA02F2E1
:10548400D2074CBF426802681340F1E70DA900201F
:1054940073B50E461446054620B94FF4D9711B481E
:1054A40001F026FA012C04D940F2B311174801F097
:1054B4001FFA314628460DF10602FFF7CBFED0B1A4
:1054C4000123BDF8061042688B40CA40D50718D4A2
:1054D400826ACA40D20714D4416B01EA030233EA58
:1054E40001010ED1056C05EA0201AA4309D124B9D0
:1054F40043690B43436102B070BD83690B4383610D
:10550400F9E70CB18360F6E7C360F4E70DA9002066
:10551400F7B50DF1060206460F46FFF79BFE04465B
:1055240028B31C4BBDF806509E4222D0C36DEB40FD
:10553400D8071CD5236DEB40D90704D440F22D21A4
:10554400154801F0D5F90123AB40E36539463046EF
:1055540001F0EAF93946304600F01CF9002806DB70
:10556400012308300D4A834043F00043936203B0A3
:10557400F0BDC36CEB40DA07F9D5C369EB40DB0738
:1055840004D44FF40E71044801F0B2F90123AB4086
:10559400E364DBE700000A500DA9002000000C5072
:1055A4000C4B70B59842044610D00B4B98420FD068
:1055B4004FF41B71094801F09BF90025A9B220465C
:1055C4000135FFF7A5FFAE42F8D270BD4E26F4E7D1
:1055D4002426F2E700000A50000008400DA900202C
:1055E40037B50D46044620B94FF426712F4801F013
:1055F4007FF90DF1060229462046FFF72BFE0246ED
:1056040000284ED04368BDF80610CB40DD070CD40B
:10561400836ACB40DC0708D40123406B8B4033EA18
:10562400000002D1106C834335D01369CB4013F0D2
:1056340001001ED1D369CB4013F0010019D0936A45
:10564400CB4013F0010F536B23FA01F313D0D807A7
:1056540003D5136CCB40DB071FD4536BCB40DD0762
:105664001DD4136C1248CB4013F0010F08BF4FF048
:10567400FF3003B030BDDC0703D5136CCB40D80733
:105684000FD4536BCB40DB070ED4136C0948CB40CB
:1056940013F0010FEAE71120EBE70748E9E70748B1
:1056A400E7E74FF0FF30E4E70548E2E70DA9002003
:1056B40000002110000051100000311000001110F2
:1056C4000000411073B50DF106020646FFF7C2FD56
:1056D400044640B3154BBDF806509E4212D0C36D2C
:1056E400EB40D8070BD5236DEB40D90704D440F227
:1056F40051310F4801F0FCF80123AB40E365002071
:1057040002B070BDC36CEB40DA07F8D5C369EB4057
:10571400DB0704D440F25B31054801F0E9F80123CA
:10572400AB40E364EBE70120EAE700BF00000A5066
:105734000DA90020022838B524D1134CE620E36AD1
:1057440043F00103E36200F0D7F8E36A9A06FCD55C
:105754001E2000F0D1F8E36A9B06FCD5EFF3108518
:10576400012383F31088094C2378132B03D9D12107
:10577400074801F0BDF823780133237085F31088BE
:10578400002038BD0120FCE700000C50E0C70020D9
:1057940047A90020064B984206D1A1F1180083B214
:1057A400142B01D840B270474FF0FF30704700BF50
:1057B40000000A500346084631B1142B03D81833AD
:1057C40002480B8070470020704700BF00000A5059
:1057D400B9B1142815D80F280CD910380A4BC0B207
:1057E4001A68072300EB400083401340C3400B704A
:1057F40000207047072885BF0838044B044BC0B20B
:10580400EEE70120704700BF0C000C5008000C505C
:1058140004000C50044B1A6942F002021A611A691E
:10582400002AFCDA704700BF00000C50024A1369DA
:1058340023F002031361704700000C50054B5B6BAF
:10584400834238BF03F1FF33181A88422CBF032068
:105854000020704700000C50094BDA6A92060CD500
:10586400084900204A6842F000424A605A6842F0FF
:1058740000425A6001225A6370470120704700BFFA
:1058840000000C500000044010B5FFF7BFF9FFF70B
:1058940003F9012828D0FFF72DF8044618B1C221D6
:1058A400134801F025F801F043F8FFF7B4F8FFF7C7
:1058B400F3F8012801D001F03FF8FFF7EDF80138C3
:1058C40018BF012001F05CF8032001F03DF800202E
:1058D40001F082F850B9074AD36823F00103D3607A
:1058E40001F056F8204610BD0024DCE70124F9E756
:1058F4007405081200B00050034670B5B8B142F206
:1059040010754FF0E026AB4284BFA3F51C5442F25D
:105914001073326998BF0024184688BF103CD3071F
:1059240008D400F00BF82346002CECD101E000F081
:1059340005F870BD00F048F8F5E7000013B50190D4
:10594400019B1C4C4BB323683BB3019BB3F1807F99
:1059540004D94FF4CD71184800F0CAFF019B33B34A
:10596400164A136813F001030DD11548D0F8FC1042
:1059740041F08071C0F8FC105360136843F40033A5
:1059840043F001031360019B22680C4953434868A8
:105994004A68121A9A42FBD309E00020FEF71EFD62
:1059A400084BB0FBF3F0019B2060002BCDD102B07B
:1059B40010BD00BF58EA002074050812001000E072
:1059C40000ED00E040420F0037B501904FF0E020B9
:1059D4004FF47A724469019B6343B3FBF2F301937E
:1059E4000023816982698A42FCD025BFA51A5B190C
:1059F4005B185B18019938BF9B1A994201D803B010
:105A040030BD1146EEE707B50190019B13B903B011
:105A14005DF804FB4FF47A70FFF76EFF019B013BC6
:105A24000193F2E78B10A3F14802F0B5D6B2042E2D
:105A340049D8022E10D8254D0E2405EB820540F2DC
:105A4400B222A1EB86039BB2A3F59073032B3AD841
:105A5400DFE803F0091A27201D4D9B003D2440F286
:105A640021321D44EDE70E2C4FF0080620D14FF4EF
:105A74007C512F68031BB3407B400B4010447B4098
:105A8400001B2B6080B2F0BD0E2C4FF0000612D12B
:105A94003F21EEE70E2C4FF010060ED14FF47C118F
:105AA400E7E70E2C4FF018060AD14FF07C51E0E7DF
:105AB4004FF4E061DDE70721DBE74FF4E021D8E7AD
:105AC4004FF0E061D5E70020DDE700BF58B000509B
